{
  "_format": "hh-sol-artifact-1",
  "contractName": "AgentEscrow",
  "sourceName": "contracts/AgentEscrow.sol",
  "abi": [
    {
      "inputs": [
        {
          "internalType": "address",
          "name": "_usdc",
          "type": "address"
        },
        {
          "internalType": "address",
          "name": "_registry",
          "type": "address"
        },
        {
          "internalType": "address",
          "name": "_facilitator",
          "type": "address"
        }
      ],
      "stateMutability": "nonpayable",
      "type": "constructor"
    },
    {
      "anonymous": false,
      "inputs": [
        {
          "indexed": true,
          "internalType": "uint256",
          "name": "agentId",
          "type": "uint256"
        },
        {
          "indexed": false,
          "internalType": "uint256",
          "name": "amount",
          "type": "uint256"
        }
      ],
      "name": "AgentCredited",
      "type": "event"
    },
    {
      "anonymous": false,
      "inputs": [
        {
          "indexed": true,
          "internalType": "uint256",
          "name": "agentId",
          "type": "uint256"
        },
        {
          "indexed": true,
          "internalType": "address",
          "name": "to",
          "type": "address"
        },
        {
          "indexed": false,
          "internalType": "uint256",
          "name": "amount",
          "type": "uint256"
        }
      ],
      "name": "AgentWithdrawn",
      "type": "event"
    },
    {
      "inputs": [
        {
          "internalType": "uint256",
          "name": "",
          "type": "uint256"
        }
      ],
      "name": "balances",
      "outputs": [
        {
          "internalType": "uint256",
          "name": "",
          "type": "uint256"
        }
      ],
      "stateMutability": "view",
      "type": "function"
    },
    {
      "inputs": [
        {
          "internalType": "uint256",
          "name": "agentId",
          "type": "uint256"
        },
        {
          "internalType": "uint256",
          "name": "amount",
          "type": "uint256"
        },
        {
          "internalType": "address",
          "name": "from",
          "type": "address"
        },
        {
          "internalType": "uint256",
          "name": "validAfter",
          "type": "uint256"
        },
        {
          "internalType": "uint256",
          "name": "validBefore",
          "type": "uint256"
        },
        {
          "internalType": "bytes32",
          "name": "nonce",
          "type": "bytes32"
        },
        {
          "internalType": "uint8",
          "name": "v",
          "type": "uint8"
        },
        {
          "internalType": "bytes32",
          "name": "r",
          "type": "bytes32"
        },
        {
          "internalType": "bytes32",
          "name": "s",
          "type": "bytes32"
        }
      ],
      "name": "creditAgent",
      "outputs": [],
      "stateMutability": "nonpayable",
      "type": "function"
    },
    {
      "inputs": [],
      "name": "facilitator",
      "outputs": [
        {
          "internalType": "address",
          "name": "",
          "type": "address"
        }
      ],
      "stateMutability": "view",
      "type": "function"
    },
    {
      "inputs": [],
      "name": "registry",
      "outputs": [
        {
          "internalType": "contract IERC8004",
          "name": "",
          "type": "address"
        }
      ],
      "stateMutability": "view",
      "type": "function"
    },
    {
      "inputs": [],
      "name": "usdc",
      "outputs": [
        {
          "internalType": "contract IERC20WithAuth",
          "name": "",
          "type": "address"
        }
      ],
      "stateMutability": "view",
      "type": "function"
    },
    {
      "inputs": [
        {
          "internalType": "uint256",
          "name": "agentId",
          "type": "uint256"
        }
      ],
      "name": "withdraw",
      "outputs": [],
      "stateMutability": "nonpayable",
      "type": "function"
    }
  ],
  "bytecode": "0x60e03461018e57601f6107ab38819003918201601f19168301916001600160401b038311848410176101935780849260609460405283398101031261018e57610047816101a9565b906100606040610059602084016101a9565b92016101a9565b916001600160a01b031690811561015a576001600160a01b0316908115610122576001600160a01b038316156100dd5760805260a05260c0526040516105ed90816101be823960805181818160d0015281816102f101526103de015260a05181818161023e0152610350015260c05181818160a001526102830152f35b60405162461bcd60e51b815260206004820152601360248201527f496e76616c696420466163696c697461746f72000000000000000000000000006044820152606490fd5b60405162461bcd60e51b815260206004820152601060248201526f496e76616c696420526567697374727960801b6044820152606490fd5b60405162461bcd60e51b815260206004820152600c60248201526b496e76616c6964205553444360a01b6044820152606490fd5b600080fd5b634e487b7160e01b600052604160045260246000fd5b51906001600160a01b038216820361018e5756fe608080604052600436101561001357600080fd5b600090813560e01c9081632e1a7d4d14610320575080633e413bee146102db5780634903b0d1146102b25780637797cee41461026d5780637b103999146102285763ccec347b1461006357600080fd5b3461022557610120366003190112610225576004356024356044356001600160a01b038116908190036102235760c43560ff811680910361021f577f00000000000000000000000000000000000000000000000000000000000000006001600160a01b031633036101e7577f00000000000000000000000000000000000000000000000000000000000000006001600160a01b031691859190833b156101e357610124908360405195869485936371f70b0760e11b855260048501523060248501528860448501526064356064850152608435608485015260a43560a485015260c484015260e43560e4840152610104356101048401525af180156101d8576101c4575b5081835282602052604083208054908282018092116101b057556040519081527f0440b1d7598781ecf619c2075b061f8c0c07dd1432872d4365bed966e8cce2e990602090a280f35b634e487b7160e01b85526011600452602485fd5b836101d19194929461057f565b9138610167565b6040513d86823e3d90fd5b8280fd5b60405162461bcd60e51b815260206004820152601060248201526f27b7363c903330b1b4b634ba30ba37b960811b6044820152606490fd5b8480fd5b835b80fd5b50346102255780600319360112610225576040517f00000000000000000000000000000000000000000000000000000000000000006001600160a01b03168152602090f35b50346102255780600319360112610225576040517f00000000000000000000000000000000000000000000000000000000000000006001600160a01b03168152602090f35b503461022557602036600319011261022557604060209160043581528083522054604051908152f35b50346102255780600319360112610225576040517f00000000000000000000000000000000000000000000000000000000000000006001600160a01b03168152602090f35b90503461057b57602036600319011261057b576331a9108f60e11b815260048035908201819052906020816024817f00000000000000000000000000000000000000000000000000000000000000006001600160a01b03165afa90811561057057839161052e575b506001600160a01b031690338290036104f75780835282602052604083205480156104c757818452602084815260408086208690555163a9059cbb60e01b815260048101859052602481018390529081604481887f00000000000000000000000000000000000000000000000000000000000000006001600160a01b03165af19081156104bc578591610481575b501561044a5760207f05668f122286fb315fa4efecdf48fe11ef05bd73d3e88b0c9873d98548645fd991604051908152a380f35b60405162461bcd60e51b815260206004820152600f60248201526e151c985b9cd9995c8819985a5b1959608a1b6044820152606490fd5b90506020813d6020116104b4575b8161049c6020938361057f565b8101031261021f5751801515810361021f5738610416565b3d915061048f565b6040513d87823e3d90fd5b60405162461bcd60e51b81526020600482015260086024820152674e6f2066756e647360c01b6044820152606490fd5b60405162461bcd60e51b815260206004820152600f60248201526e2737ba1030b3b2b73a1037bbb732b960891b6044820152606490fd5b90506020813d602011610568575b816105496020938361057f565b810103126101e357516001600160a01b03811681036101e35738610388565b3d915061053c565b6040513d85823e3d90fd5b5080fd5b90601f8019910116810190811067ffffffffffffffff8211176105a157604052565b634e487b7160e01b600052604160045260246000fdfea2646970667358221220660430a929deaad9d715c422b6dcd623b6844e495a6b1d76018c815a1ac0234964736f6c634300081c0033",
  "linkReferences": {},
  "deployedLinkReferences": {}
}