{
  "_format": "hh-sol-artifact-1",
  "contractName": "IdentityRegistryUpgradeable",
  "sourceName": "contracts/IdentityRegistryUpgradeable.sol",
  "abi": [
    {
      "inputs": [],
      "stateMutability": "nonpayable",
      "type": "constructor"
    },
    {
      "inputs": [
        {
          "internalType": "address",
          "name": "target",
          "type": "address"
        }
      ],
      "name": "AddressEmptyCode",
      "type": "error"
    },
    {
      "inputs": [
        {
          "internalType": "address",
          "name": "implementation",
          "type": "address"
        }
      ],
      "name": "ERC1967InvalidImplementation",
      "type": "error"
    },
    {
      "inputs": [],
      "name": "ERC1967NonPayable",
      "type": "error"
    },
    {
      "inputs": [
        {
          "internalType": "address",
          "name": "sender",
          "type": "address"
        },
        {
          "internalType": "uint256",
          "name": "tokenId",
          "type": "uint256"
        },
        {
          "internalType": "address",
          "name": "owner",
          "type": "address"
        }
      ],
      "name": "ERC721IncorrectOwner",
      "type": "error"
    },
    {
      "inputs": [
        {
          "internalType": "address",
          "name": "operator",
          "type": "address"
        },
        {
          "internalType": "uint256",
          "name": "tokenId",
          "type": "uint256"
        }
      ],
      "name": "ERC721InsufficientApproval",
      "type": "error"
    },
    {
      "inputs": [
        {
          "internalType": "address",
          "name": "approver",
          "type": "address"
        }
      ],
      "name": "ERC721InvalidApprover",
      "type": "error"
    },
    {
      "inputs": [
        {
          "internalType": "address",
          "name": "operator",
          "type": "address"
        }
      ],
      "name": "ERC721InvalidOperator",
      "type": "error"
    },
    {
      "inputs": [
        {
          "internalType": "address",
          "name": "owner",
          "type": "address"
        }
      ],
      "name": "ERC721InvalidOwner",
      "type": "error"
    },
    {
      "inputs": [
        {
          "internalType": "address",
          "name": "receiver",
          "type": "address"
        }
      ],
      "name": "ERC721InvalidReceiver",
      "type": "error"
    },
    {
      "inputs": [
        {
          "internalType": "address",
          "name": "sender",
          "type": "address"
        }
      ],
      "name": "ERC721InvalidSender",
      "type": "error"
    },
    {
      "inputs": [
        {
          "internalType": "uint256",
          "name": "tokenId",
          "type": "uint256"
        }
      ],
      "name": "ERC721NonexistentToken",
      "type": "error"
    },
    {
      "inputs": [],
      "name": "FailedCall",
      "type": "error"
    },
    {
      "inputs": [],
      "name": "InvalidInitialization",
      "type": "error"
    },
    {
      "inputs": [],
      "name": "NotInitializing",
      "type": "error"
    },
    {
      "inputs": [
        {
          "internalType": "address",
          "name": "owner",
          "type": "address"
        }
      ],
      "name": "OwnableInvalidOwner",
      "type": "error"
    },
    {
      "inputs": [
        {
          "internalType": "address",
          "name": "account",
          "type": "address"
        }
      ],
      "name": "OwnableUnauthorizedAccount",
      "type": "error"
    },
    {
      "inputs": [],
      "name": "UUPSUnauthorizedCallContext",
      "type": "error"
    },
    {
      "inputs": [
        {
          "internalType": "bytes32",
          "name": "slot",
          "type": "bytes32"
        }
      ],
      "name": "UUPSUnsupportedProxiableUUID",
      "type": "error"
    },
    {
      "anonymous": false,
      "inputs": [
        {
          "indexed": true,
          "internalType": "address",
          "name": "owner",
          "type": "address"
        },
        {
          "indexed": true,
          "internalType": "address",
          "name": "approved",
          "type": "address"
        },
        {
          "indexed": true,
          "internalType": "uint256",
          "name": "tokenId",
          "type": "uint256"
        }
      ],
      "name": "Approval",
      "type": "event"
    },
    {
      "anonymous": false,
      "inputs": [
        {
          "indexed": true,
          "internalType": "address",
          "name": "owner",
          "type": "address"
        },
        {
          "indexed": true,
          "internalType": "address",
          "name": "operator",
          "type": "address"
        },
        {
          "indexed": false,
          "internalType": "bool",
          "name": "approved",
          "type": "bool"
        }
      ],
      "name": "ApprovalForAll",
      "type": "event"
    },
    {
      "anonymous": false,
      "inputs": [
        {
          "indexed": false,
          "internalType": "uint256",
          "name": "_fromTokenId",
          "type": "uint256"
        },
        {
          "indexed": false,
          "internalType": "uint256",
          "name": "_toTokenId",
          "type": "uint256"
        }
      ],
      "name": "BatchMetadataUpdate",
      "type": "event"
    },
    {
      "anonymous": false,
      "inputs": [
        {
          "indexed": false,
          "internalType": "uint64",
          "name": "version",
          "type": "uint64"
        }
      ],
      "name": "Initialized",
      "type": "event"
    },
    {
      "anonymous": false,
      "inputs": [
        {
          "indexed": true,
          "internalType": "uint256",
          "name": "agentId",
          "type": "uint256"
        },
        {
          "indexed": true,
          "internalType": "string",
          "name": "indexedKey",
          "type": "string"
        },
        {
          "indexed": false,
          "internalType": "string",
          "name": "key",
          "type": "string"
        },
        {
          "indexed": false,
          "internalType": "bytes",
          "name": "value",
          "type": "bytes"
        }
      ],
      "name": "MetadataSet",
      "type": "event"
    },
    {
      "anonymous": false,
      "inputs": [
        {
          "indexed": false,
          "internalType": "uint256",
          "name": "_tokenId",
          "type": "uint256"
        }
      ],
      "name": "MetadataUpdate",
      "type": "event"
    },
    {
      "anonymous": false,
      "inputs": [
        {
          "indexed": true,
          "internalType": "address",
          "name": "previousOwner",
          "type": "address"
        },
        {
          "indexed": true,
          "internalType": "address",
          "name": "newOwner",
          "type": "address"
        }
      ],
      "name": "OwnershipTransferred",
      "type": "event"
    },
    {
      "anonymous": false,
      "inputs": [
        {
          "indexed": true,
          "internalType": "uint256",
          "name": "agentId",
          "type": "uint256"
        },
        {
          "indexed": false,
          "internalType": "string",
          "name": "tokenURI",
          "type": "string"
        },
        {
          "indexed": true,
          "internalType": "address",
          "name": "owner",
          "type": "address"
        }
      ],
      "name": "Registered",
      "type": "event"
    },
    {
      "anonymous": false,
      "inputs": [
        {
          "indexed": true,
          "internalType": "address",
          "name": "from",
          "type": "address"
        },
        {
          "indexed": true,
          "internalType": "address",
          "name": "to",
          "type": "address"
        },
        {
          "indexed": true,
          "internalType": "uint256",
          "name": "tokenId",
          "type": "uint256"
        }
      ],
      "name": "Transfer",
      "type": "event"
    },
    {
      "anonymous": false,
      "inputs": [
        {
          "indexed": true,
          "internalType": "address",
          "name": "implementation",
          "type": "address"
        }
      ],
      "name": "Upgraded",
      "type": "event"
    },
    {
      "anonymous": false,
      "inputs": [
        {
          "indexed": true,
          "internalType": "uint256",
          "name": "agentId",
          "type": "uint256"
        },
        {
          "indexed": false,
          "internalType": "string",
          "name": "newUri",
          "type": "string"
        },
        {
          "indexed": true,
          "internalType": "address",
          "name": "updatedBy",
          "type": "address"
        }
      ],
      "name": "UriUpdated",
      "type": "event"
    },
    {
      "inputs": [],
      "name": "UPGRADE_INTERFACE_VERSION",
      "outputs": [
        {
          "internalType": "string",
          "name": "",
          "type": "string"
        }
      ],
      "stateMutability": "view",
      "type": "function"
    },
    {
      "inputs": [
        {
          "internalType": "address",
          "name": "to",
          "type": "address"
        },
        {
          "internalType": "uint256",
          "name": "tokenId",
          "type": "uint256"
        }
      ],
      "name": "approve",
      "outputs": [],
      "stateMutability": "nonpayable",
      "type": "function"
    },
    {
      "inputs": [
        {
          "internalType": "address",
          "name": "owner",
          "type": "address"
        }
      ],
      "name": "balanceOf",
      "outputs": [
        {
          "internalType": "uint256",
          "name": "",
          "type": "uint256"
        }
      ],
      "stateMutability": "view",
      "type": "function"
    },
    {
      "inputs": [
        {
          "internalType": "uint256",
          "name": "tokenId",
          "type": "uint256"
        }
      ],
      "name": "getApproved",
      "outputs": [
        {
          "internalType": "address",
          "name": "",
          "type": "address"
        }
      ],
      "stateMutability": "view",
      "type": "function"
    },
    {
      "inputs": [
        {
          "internalType": "uint256",
          "name": "agentId",
          "type": "uint256"
        },
        {
          "internalType": "string",
          "name": "key",
          "type": "string"
        }
      ],
      "name": "getMetadata",
      "outputs": [
        {
          "internalType": "bytes",
          "name": "",
          "type": "bytes"
        }
      ],
      "stateMutability": "view",
      "type": "function"
    },
    {
      "inputs": [],
      "name": "getVersion",
      "outputs": [
        {
          "internalType": "string",
          "name": "",
          "type": "string"
        }
      ],
      "stateMutability": "pure",
      "type": "function"
    },
    {
      "inputs": [],
      "name": "initialize",
      "outputs": [],
      "stateMutability": "nonpayable",
      "type": "function"
    },
    {
      "inputs": [
        {
          "internalType": "address",
          "name": "owner",
          "type": "address"
        },
        {
          "internalType": "address",
          "name": "operator",
          "type": "address"
        }
      ],
      "name": "isApprovedForAll",
      "outputs": [
        {
          "internalType": "bool",
          "name": "",
          "type": "bool"
        }
      ],
      "stateMutability": "view",
      "type": "function"
    },
    {
      "inputs": [],
      "name": "name",
      "outputs": [
        {
          "internalType": "string",
          "name": "",
          "type": "string"
        }
      ],
      "stateMutability": "view",
      "type": "function"
    },
    {
      "inputs": [],
      "name": "owner",
      "outputs": [
        {
          "internalType": "address",
          "name": "",
          "type": "address"
        }
      ],
      "stateMutability": "view",
      "type": "function"
    },
    {
      "inputs": [
        {
          "internalType": "uint256",
          "name": "tokenId",
          "type": "uint256"
        }
      ],
      "name": "ownerOf",
      "outputs": [
        {
          "internalType": "address",
          "name": "",
          "type": "address"
        }
      ],
      "stateMutability": "view",
      "type": "function"
    },
    {
      "inputs": [],
      "name": "proxiableUUID",
      "outputs": [
        {
          "internalType": "bytes32",
          "name": "",
          "type": "bytes32"
        }
      ],
      "stateMutability": "view",
      "type": "function"
    },
    {
      "inputs": [],
      "name": "register",
      "outputs": [
        {
          "internalType": "uint256",
          "name": "agentId",
          "type": "uint256"
        }
      ],
      "stateMutability": "nonpayable",
      "type": "function"
    },
    {
      "inputs": [
        {
          "internalType": "string",
          "name": "tokenUri",
          "type": "string"
        },
        {
          "components": [
            {
              "internalType": "string",
              "name": "key",
              "type": "string"
            },
            {
              "internalType": "bytes",
              "name": "value",
              "type": "bytes"
            }
          ],
          "internalType": "struct IdentityRegistryUpgradeable.MetadataEntry[]",
          "name": "metadata",
          "type": "tuple[]"
        }
      ],
      "name": "register",
      "outputs": [
        {
          "internalType": "uint256",
          "name": "agentId",
          "type": "uint256"
        }
      ],
      "stateMutability": "nonpayable",
      "type": "function"
    },
    {
      "inputs": [
        {
          "internalType": "string",
          "name": "tokenUri",
          "type": "string"
        }
      ],
      "name": "register",
      "outputs": [
        {
          "internalType": "uint256",
          "name": "agentId",
          "type": "uint256"
        }
      ],
      "stateMutability": "nonpayable",
      "type": "function"
    },
    {
      "inputs": [],
      "name": "renounceOwnership",
      "outputs": [],
      "stateMutability": "nonpayable",
      "type": "function"
    },
    {
      "inputs": [
        {
          "internalType": "address",
          "name": "from",
          "type": "address"
        },
        {
          "internalType": "address",
          "name": "to",
          "type": "address"
        },
        {
          "internalType": "uint256",
          "name": "tokenId",
          "type": "uint256"
        }
      ],
      "name": "safeTransferFrom",
      "outputs": [],
      "stateMutability": "nonpayable",
      "type": "function"
    },
    {
      "inputs": [
        {
          "internalType": "address",
          "name": "from",
          "type": "address"
        },
        {
          "internalType": "address",
          "name": "to",
          "type": "address"
        },
        {
          "internalType": "uint256",
          "name": "tokenId",
          "type": "uint256"
        },
        {
          "internalType": "bytes",
          "name": "data",
          "type": "bytes"
        }
      ],
      "name": "safeTransferFrom",
      "outputs": [],
      "stateMutability": "nonpayable",
      "type": "function"
    },
    {
      "inputs": [
        {
          "internalType": "uint256",
          "name": "agentId",
          "type": "uint256"
        },
        {
          "internalType": "string",
          "name": "newUri",
          "type": "string"
        }
      ],
      "name": "setAgentUri",
      "outputs": [],
      "stateMutability": "nonpayable",
      "type": "function"
    },
    {
      "inputs": [
        {
          "internalType": "address",
          "name": "operator",
          "type": "address"
        },
        {
          "internalType": "bool",
          "name": "approved",
          "type": "bool"
        }
      ],
      "name": "setApprovalForAll",
      "outputs": [],
      "stateMutability": "nonpayable",
      "type": "function"
    },
    {
      "inputs": [
        {
          "internalType": "uint256",
          "name": "agentId",
          "type": "uint256"
        },
        {
          "internalType": "string",
          "name": "key",
          "type": "string"
        },
        {
          "internalType": "bytes",
          "name": "value",
          "type": "bytes"
        }
      ],
      "name": "setMetadata",
      "outputs": [],
      "stateMutability": "nonpayable",
      "type": "function"
    },
    {
      "inputs": [
        {
          "internalType": "bytes4",
          "name": "interfaceId",
          "type": "bytes4"
        }
      ],
      "name": "supportsInterface",
      "outputs": [
        {
          "internalType": "bool",
          "name": "",
          "type": "bool"
        }
      ],
      "stateMutability": "view",
      "type": "function"
    },
    {
      "inputs": [],
      "name": "symbol",
      "outputs": [
        {
          "internalType": "string",
          "name": "",
          "type": "string"
        }
      ],
      "stateMutability": "view",
      "type": "function"
    },
    {
      "inputs": [
        {
          "internalType": "uint256",
          "name": "tokenId",
          "type": "uint256"
        }
      ],
      "name": "tokenURI",
      "outputs": [
        {
          "internalType": "string",
          "name": "",
          "type": "string"
        }
      ],
      "stateMutability": "view",
      "type": "function"
    },
    {
      "inputs": [
        {
          "internalType": "address",
          "name": "from",
          "type": "address"
        },
        {
          "internalType": "address",
          "name": "to",
          "type": "address"
        },
        {
          "internalType": "uint256",
          "name": "tokenId",
          "type": "uint256"
        }
      ],
      "name": "transferFrom",
      "outputs": [],
      "stateMutability": "nonpayable",
      "type": "function"
    },
    {
      "inputs": [
        {
          "internalType": "address",
          "name": "newOwner",
          "type": "address"
        }
      ],
      "name": "transferOwnership",
      "outputs": [],
      "stateMutability": "nonpayable",
      "type": "function"
    },
    {
      "inputs": [
        {
          "internalType": "address",
          "name": "newImplementation",
          "type": "address"
        },
        {
          "internalType": "bytes",
          "name": "data",
          "type": "bytes"
        }
      ],
      "name": "upgradeToAndCall",
      "outputs": [],
      "stateMutability": "payable",
      "type": "function"
    }
  ],
  "bytecode": "0x60a080604052346100ea57306080527ff0c57e16840df040f15088dc2f81fe391c3923bec73e23a9662efc9c229c6a005460ff8160401c166100d9576002600160401b03196001600160401b03821601610073575b60405161244490816100f08239608051818181610f86015261101a0152f35b6001600160401b0319166001600160401b039081177ff0c57e16840df040f15088dc2f81fe391c3923bec73e23a9662efc9c229c6a005581527fc7f505b2f371ae2175ee4913f4499e1f2633a7b5936321eed1cdaeb6115181d290602090a13880610054565b63f92ee8a960e01b60005260046000fd5b600080fdfe608080604052600436101561001357600080fd5b60003560e01c90816301ffc9a7146116ab5750806306fdde03146115e9578063081812fc146115c1578063095ea7b3146114cf5780630d8e6e2c146114885780631aa3a0081461142157806323b872dd1461140a57806342842e0e146113da578063466648da146111b85780634f1ef28614610fdd57806352d1902d14610f735780635a75314914610e3c5780636352211e14610e0c57806370a0823114610dba578063715018a614610d505780638129fc1c146108b95780638da5cb5b146108835780638ea422861461053557806395d89b411461044e578063a22cb465146103b2578063ad3cb1cc1461036b578063b88d4fde14610311578063c87b56dd146102f2578063cb4799f21461025e578063e985e9c514610210578063f2c298be146101785763f2fde38b1461014857600080fd5b3461017357602036600319011261017357610171610164611778565b61016c612158565b611ceb565b005b600080fd5b34610173576020366003190112610173576004356001600160401b038111610173576101aa6020913690600401611851565b600054906101b78261192c565b6000556101c48233611dba565b6101ce8183612011565b817fca52e62c367d81bb2e328eb795f7c7ba24afb478408a26c0e201d155c449bc4a60405185815280610205339588830190611753565b0390a3604051908152f35b3461017357604036600319011261017357610229611778565b61023a61023461178e565b91611c2c565b9060018060a01b0316600052602052602060ff604060002054166040519015158152f35b34610173576040366003190112610173576024356001600160401b038111610173576102d36102da6102be602061029c6102ee953690600401611851565b6004356000526001825260406000208260405194838680955193849201611730565b820190815203019020604051928380926118a9565b03826117de565b604051918291602083526020830190611753565b0390f35b34610173576020366003190112610173576102ee6102da600435611c8f565b346101735760803660031901126101735761032a611778565b61033261178e565b90604435606435926001600160401b03841161017357610359610171943690600401611851565b92610365838383611951565b336121be565b34610173576000366003190112610173576102ee604080519061038e81836117de565b60058252640352e302e360dc1b602083015251918291602083526020830190611753565b34610173576040366003190112610173576103cb611778565b60243590811515809203610173576001600160a01b0316908115610439576103f233611c2c565b82600052602052604060002060ff1981541660ff83161790556040519081527f17307eab39ab6107e8899845ad3d59bd9653f200f220920489ca2b5937696c3160203392a3005b50630b61174360e31b60005260045260246000fd5b346101735760003660031901126101735760405160006000805160206123ef8339815191525461047d8161186f565b808452906001811690811561051157506001146104a5575b6102ee836102da818503826117de565b6000805160206123ef83398151915260009081527ff4bad0a69248f59680a4f2b3000328cec71a413447c96781cfe5996daa8c456e939250905b8082106104f7575090915081016020016102da610495565b9192600181602092548385880101520191019092916104df565b60ff191660208086019190915291151560051b840190910191506102da9050610495565b34610173576040366003190112610173576004356001600160401b03811161017357610565903690600401611851565b6024356001600160401b0381116101735736602382011215610173578060040135906001600160401b0382116107c9578160051b90604051926105ab60208401856117de565b835260246020840192820101903682116101735760248101925b8284106107ea578486600054906105db8261192c565b6000556105e88233611dba565b6105f28183612011565b817fca52e62c367d81bb2e328eb795f7c7ba24afb478408a26c0e201d155c449bc4a604051602081528061062b33956020830190611753565b0390a36000915b80518310156107df5760206106478483611c65565b5101519282600052600160205261067e602060406000206106688486611c65565b5151908260405194838680955193849201611730565b8201908152030190208451946001600160401b0386116107c9576106ac866106a6845461186f565b84611b72565b602090601f871160011461075e5795806106e2926001969798600092610753575b50508160011b916000199060031b1c19161790565b90555b6106ef8184611c65565b5151847f2c149ed548c6d2993cd73efe187df6eccabe4538091b33adbd25fafdb8a1468b61071d8487611c65565b515192610738602061072f878a611c65565b51015191611bae565b9361074860405192839283611bce565b0390a3019190610632565b0151905088806106cd565b90601f1987169183600052816000209260005b8181106107b1575091600196979892918388959310610798575b505050811b0190556106e5565b015160001960f88460031b161c1916905587808061078b565b82840151855560019094019360209384019301610771565b634e487b7160e01b600052604160045260246000fd5b602082604051908152f35b83356001600160401b038111610173578201604060231982360301126101735760405191604083018381106001600160401b038211176107c95760405260248201356001600160401b0381116101735761084a9060243691850101611851565b83526044820135926001600160401b03841161017357610874602094936024869536920101611851565b838201528152019301926105c5565b346101735760003660031901126101735760008051602061236f833981519152546040516001600160a01b039091168152602090f35b34610173576000366003190112610173576000805160206123cf8339815191525460ff8160401c1615906001600160401b03811680159081610d48575b6001149081610d3e575b159081610d35575b50610d245767ffffffffffffffff1981166001176000805160206123cf8339815191525581610cf7575b5060409081519161094381846117de565b600d83526c4167656e744964656e7469747960981b602084015280519161096a82846117de565b600383526210525160ea1b60208401526109826122bf565b61098a6122bf565b83516001600160401b0381116107c9576109b260008051602061234f8339815191525461186f565b601f8111610c9b575b50602094601f8211600114610bfd576109ef929394958291600092610bf25750508160011b916000199060031b1c19161790565b60008051602061234f833981519152555b82516001600160401b0381116107c957610a286000805160206123ef8339815191525461186f565b601f8111610b8b575b506020601f8211600114610b0a578190610a63939495600092610aff5750508160011b916000199060031b1c19161790565b6000805160206123ef833981519152555b610a7c6122bf565b610a846122bf565b610a8c6122bf565b610a9533611ceb565b610a9d6122bf565b60008055610aa757005b60207fc7f505b2f371ae2175ee4913f4499e1f2633a7b5936321eed1cdaeb6115181d29168ff0000000000000000196000805160206123cf83398151915254166000805160206123cf833981519152555160018152a1005b0151905085806106cd565b601f198216906000805160206123ef833981519152600052806000209160005b818110610b7357509583600195969710610b5a575b505050811b016000805160206123ef83398151915255610a74565b015160001960f88460031b161c19169055848080610b3f565b9192602060018192868b015181550194019201610b2a565b6000805160206123ef833981519152600052610be2907ff4bad0a69248f59680a4f2b3000328cec71a413447c96781cfe5996daa8c456e601f840160051c81019160208510610be8575b601f0160051c0190611b5b565b84610a31565b9091508190610bd5565b0151905086806106cd565b601f1982169560008051602061234f8339815191526000527f37c58c799b6609234b945e882912ee9ad34948a1dfaa20a97485e1a7752bbf819160005b888110610c8357508360019596979810610c6a575b505050811b0160008051602061234f83398151915255610a00565b015160001960f88460031b161c19169055858080610c4f565b91926020600181928685015181550194019201610c3a565b60008051602061234f833981519152600052610cf1907f37c58c799b6609234b945e882912ee9ad34948a1dfaa20a97485e1a7752bbf81601f840160051c81019160208510610be857601f0160051c0190611b5b565b856109bb565b68ffffffffffffffffff191668010000000000000001176000805160206123cf8339815191525581610932565b63f92ee8a960e01b60005260046000fd5b90501583610908565b303b159150610900565b8391506108f6565b3461017357600036600319011261017357610d69612158565b60008051602061236f83398151915280546001600160a01b031981169091556000906001600160a01b03167f8be0079c531659141344cd1fd0a4f28419497f9722a3daafe3b4186f6b6457e08280a3005b3461017357602036600319011261017357610dd3611778565b6001600160a01b03811615610df657610ded602091611bf3565b54604051908152f35b6322718ad960e21b600052600060045260246000fd5b34610173576020366003190112610173576020610e2a600435611d61565b6040516001600160a01b039091168152f35b34610173576040366003190112610173576024356004356001600160401b0382116101735736602383011215610173578160040135916001600160401b0383116101735760248101906024843692010111610173577fb41beef75d9f8d55b985319b459e96f82453580af381391f1ad531eb8f8b5a3a90610ebc83611d61565b336001600160a01b03821614908115610f4f575b508015610f26575b610ee190611b1e565b610ef5610eef36868461181a565b84612011565b83604051916020835281602084015260408301376000604085830101526040813395601f80199101168101030190a3005b50610f3083611d61565b50610ee16001600160a01b03610f4585611d92565b1633149050610ed8565b610f599150611c2c565b336000908152602091909152604090205460ff1685610ed0565b34610173576000366003190112610173577f00000000000000000000000000000000000000000000000000000000000000006001600160a01b03163003610fcc57602060405160008051602061238f8339815191528152f35b63703e46dd60e11b60005260046000fd5b604036600319011261017357610ff1611778565b6024356001600160401b03811161017357611010903690600401611851565b6001600160a01b037f000000000000000000000000000000000000000000000000000000000000000016308114908115611195575b50610fcc57611052612158565b6040516352d1902d60e01b81526001600160a01b0383169290602081600481875afa60009181611161575b506110975783634c9c8ce360e01b60005260045260246000fd5b8060008051602061238f83398151915285920361114d5750813b156111395760008051602061238f83398151915280546001600160a01b031916821790557fbc7cd75a20ee27fd9adebab32041f755214dbc6bffa90cc0225b39da2e5c2d3b600080a281511561111f5760008083602061017195519101845af461111961218e565b916122ed565b50503461112857005b63b398979f60e01b60005260046000fd5b634c9c8ce360e01b60005260045260246000fd5b632a87526960e21b60005260045260246000fd5b9091506020813d60201161118d575b8161117d602093836117de565b810103126101735751908561107d565b3d9150611170565b60008051602061238f833981519152546001600160a01b03161415905083611045565b34610173576060366003190112610173576004356024356001600160401b038111610173576111eb903690600401611851565b906044356001600160401b0381116101735761120b903690600401611851565b6001600160a01b0361121c83611fd7565b16331480156113af575b8015611386575b61123690611b1e565b816000526001602052604060002060206040518092865161125a8184868b01611730565b82019081520301902081516001600160401b0381116107c957611281816106a6845461186f565b6020601f82116001146112ff57817f2c149ed548c6d2993cd73efe187df6eccabe4538091b33adbd25fafdb8a1468b9493926112d3926000916112f4575b508160011b916000199060031b1c19161790565b90555b6112df84611bae565b936112ef60405192839283611bce565b0390a3005b9050840151886112bf565b601f1982169083600052806000209160005b81811061136e57509183917f2c149ed548c6d2993cd73efe187df6eccabe4538091b33adbd25fafdb8a1468b96959460019410611355575b5050811b0190556112d6565b85015160001960f88460031b161c191690558780611349565b9192602060018192868a015181550194019201611311565b5061139082611d61565b506112366001600160a01b036113a584611d92565b163314905061122d565b506113c16113bc83611fd7565b611c2c565b336000908152602091909152604090205460ff16611226565b34610173576101716113eb366117a4565b90604051926113fb6020856117de565b60008452610365838383611951565b346101735761017161141b366117a4565b91611951565b346101735760003660031901126101735760206000546114408161192c565b60005561144d8133611dba565b604051828152600083820152817fca52e62c367d81bb2e328eb795f7c7ba24afb478408a26c0e201d155c449bc4a60403393a3604051908152f35b34610173576000366003190112610173576102ee60408051906114ab81836117de565b60058252640312e302e360dc1b602083015251918291602083526020830190611753565b34610173576040366003190112610173576114e8611778565b6024356114f481611d61565b331515806115ae575b8061158a575b6115755781906001600160a01b0384811691167f8c5be1e5ebec7d5bd14f71427d1e84f3dd0314c0f7b2291e5b200ac8c7c3b925600080a460009081526000805160206123af8339815191526020526040902080546001600160a01b0319166001600160a01b03909216919091179055005b63a9fbf51f60e01b6000523360045260246000fd5b5061159481611c2c565b336000908152602091909152604090205460ff1615611503565b506001600160a01b0381163314156114fd565b34610173576020366003190112610173576020610e2a6004356115e381611d61565b50611d92565b3461017357600036600319011261017357604051600060008051602061234f833981519152546116188161186f565b8084529060018116908115610511575060011461163f576102ee836102da818503826117de565b60008051602061234f83398151915260009081527f37c58c799b6609234b945e882912ee9ad34948a1dfaa20a97485e1a7752bbf81939250905b808210611691575090915081016020016102da610495565b919260018160209254838588010152019101909291611679565b34610173576020366003190112610173576004359063ffffffff60e01b821680920361017357602091632483248360e11b81149081156116ed575b5015158152f35b6380ac58cd60e01b81149150811561171f575b811561170e575b50836116e6565b6301ffc9a760e01b14905083611707565b635b5e139f60e01b81149150611700565b60005b8381106117435750506000910152565b8181015183820152602001611733565b9060209161176c81518092818552858086019101611730565b601f01601f1916010190565b600435906001600160a01b038216820361017357565b602435906001600160a01b038216820361017357565b6060906003190112610173576004356001600160a01b038116810361017357906024356001600160a01b0381168103610173579060443590565b90601f801991011681019081106001600160401b038211176107c957604052565b6001600160401b0381116107c957601f01601f191660200190565b929192611826826117ff565b9161183460405193846117de565b829481845281830111610173578281602093846000960137010152565b9080601f830112156101735781602061186c9335910161181a565b90565b90600182811c9216801561189f575b602083101461188957565b634e487b7160e01b600052602260045260246000fd5b91607f169161187e565b600092918154916118b98361186f565b808352926001811690811561190f57506001146118d557505050565b60009081526020812093945091925b8383106118f5575060209250010190565b6001816020929493945483858701015201910191906118e4565b915050602093945060ff929192191683830152151560051b010190565b600019811461193b5760010190565b634e487b7160e01b600052601160045260246000fd5b909291906001600160a01b0384168015611b085760009461197184611fd7565b9533151580611a6f575b509184917fddf252ad1be2c89b69c2b068fc378daa952ba7f163c4a11628f55a4df523b3ef6119bc97989460018060a01b03861698899384611a3057611bf3565b805460010190558481527f80bb2b638cc20bc4d0a60d66940f3ab4a00c1d7b313497ca82fb0b4ab00793026020526040812080546001600160a01b0319168517905580a4506001600160a01b0316808303611a1657505050565b6364283d7b60e01b60005260045260245260445260646000fd5b60008781526000805160206123af8339815191526020526040902080546001600160a01b0319169055611a6288611bf3565b8054600019019055611bf3565b80611ab8575b15611a80573861197b565b84906001600160a01b038816611aa257602491637e27328960e01b8252600452fd5b60449163177e802f60e01b825233600452602452fd5b506001600160a01b03871633148015611aeb575b80611a755750336001600160a01b03611ae487611d92565b1614611a75565b50611af587611c2c565b338252602052604081205460ff16611acc565b633250574960e11b600052600060045260246000fd5b15611b2557565b60405162461bcd60e51b815260206004820152600e60248201526d139bdd08185d5d1a1bdc9a5e995960921b6044820152606490fd5b818110611b66575050565b60008155600101611b5b565b9190601f8111611b8157505050565b611bac926000526020600020906020601f840160051c83019310610be857601f0160051c0190611b5b565b565b611bc690602060405192828480945193849201611730565b810103902090565b9091611be561186c93604084526040840190611753565b916020818403910152611753565b6001600160a01b031660009081527f80bb2b638cc20bc4d0a60d66940f3ab4a00c1d7b313497ca82fb0b4ab00793036020526040902090565b6001600160a01b031660009081527f80bb2b638cc20bc4d0a60d66940f3ab4a00c1d7b313497ca82fb0b4ab00793056020526040902090565b8051821015611c795760209160051b010190565b634e487b7160e01b600052603260045260246000fd5b611c9881611d61565b506000527f0542a41881ee128a365a727b282c86fa859579490b9bb45aab8503648c8e79006020526102d3611cd76040600020604051928380926118a9565b6000604051611ce76020826117de565b5290565b6001600160a01b03168015611d4b5760008051602061236f83398151915280546001600160a01b0319811683179091556001600160a01b03167f8be0079c531659141344cd1fd0a4f28419497f9722a3daafe3b4186f6b6457e0600080a3565b631e4fbdf760e01b600052600060045260246000fd5b611d6a81611fd7565b906001600160a01b03821615611d7e575090565b637e27328960e01b60005260045260246000fd5b60009081526000805160206123af83398151915260205260409020546001600160a01b031690565b9060209060405190611dcc83836117de565b600082526001600160a01b038416938415611b0857611dea82611fd7565b6001600160a01b03811680151591908490889084611f98575b611e0c86611bf3565b8054600101905560008381527f80bb2b638cc20bc4d0a60d66940f3ab4a00c1d7b313497ca82fb0b4ab00793028a526040812080546001600160a01b031916841790557fddf252ad1be2c89b69c2b068fc378daa952ba7f163c4a11628f55a4df523b3ef9080a450611f82573b611e84575b50505050565b91611ec291819495936040519384928392630a85bd0160e11b8452336004850152600060248501526044840152608060648401526084830190611753565b03816000885af18091600091611f3d575b5090611f04575050611ee361218e565b8051919082611f015783633250574960e11b60005260045260246000fd5b01fd5b909291506001600160e01b03191663757a42ff60e11b01611f29575038808080611e7e565b633250574960e11b60005260045260246000fd5b8481813d8311611f7b575b611f5281836117de565b81010312611f775751906001600160e01b031982168203611f74575038611ed3565b80fd5b5080fd5b503d611f48565b6339e3563760e11b600052600060045260246000fd5b60008381526000805160206123af8339815191526020526040902080546001600160a01b0319169055611fca84611bf3565b8054600019019055611e03565b60009081527f80bb2b638cc20bc4d0a60d66940f3ab4a00c1d7b313497ca82fb0b4ab007930260205260409020546001600160a01b031690565b919091806000527f0542a41881ee128a365a727b282c86fa859579490b9bb45aab8503648c8e7900602052604060002083516001600160401b0381116107c95761205f816106a6845461186f565b6020601f82116001146120cc578160209493926120b5927ff8e1a15aba9398e019f0b49df1a4fde98ee17ae345cb5f6b5e2c27f5033e8ce797986000926120c15750508160011b916000199060031b1c19161790565b90555b604051908152a1565b0151905038806106cd565b601f1982169583600052816000209660005b818110612140575096600192849260209796957ff8e1a15aba9398e019f0b49df1a4fde98ee17ae345cb5f6b5e2c27f5033e8ce7999a10612127575b505050811b0190556120b8565b015160001960f88460031b161c1916905538808061211a565b838301518955600190980197602093840193016120de565b60008051602061236f833981519152546001600160a01b0316330361217957565b63118cdaa760e01b6000523360045260246000fd5b3d156121b9573d9061219f826117ff565b916121ad60405193846117de565b82523d6000602084013e565b606090565b823b6121cc575b5050505050565b604051630a85bd0160e11b81526001600160a01b039182166004820152918116602483015260448201939093526080606482015291169160209082908190612218906084830190611753565b03816000865af1809160009161227c575b509061225a575061223861218e565b805190816122555782633250574960e11b60005260045260246000fd5b602001fd5b6001600160e01b03191663757a42ff60e11b01611f29575038808080806121c5565b6020813d6020116122b7575b81612295602093836117de565b81010312611f775751906001600160e01b031982168203611f74575038612229565b3d9150612288565b60ff6000805160206123cf8339815191525460401c16156122dc57565b631afcd79f60e31b60005260046000fd5b90612313575080511561230257602081519101fd5b63d6bda27560e01b60005260046000fd5b81511580612345575b612324575090565b639996b31560e01b60009081526001600160a01b0391909116600452602490fd5b50803b1561231c56fe80bb2b638cc20bc4d0a60d66940f3ab4a00c1d7b313497ca82fb0b4ab00793009016d09d72d40fdae2fd8ceac6b6234c7706214fd39c1cd1e609a0528c199300360894a13ba1a3210667c828492db98dca3e2076cc3735a920a3ca505d382bbc80bb2b638cc20bc4d0a60d66940f3ab4a00c1d7b313497ca82fb0b4ab0079304f0c57e16840df040f15088dc2f81fe391c3923bec73e23a9662efc9c229c6a0080bb2b638cc20bc4d0a60d66940f3ab4a00c1d7b313497ca82fb0b4ab0079301a2646970667358221220b9d35eb7d732e2660d3b32975311a9728e9910eb629ac4d48bac8bc9f93930f064736f6c634300081c0033",
  "linkReferences": {},
  "deployedLinkReferences": {}
}