{
  "_format": "hh-sol-artifact-1",
  "contractName": "IdentityRegistry",
  "sourceName": "contracts/IdentityRegistry.sol",
  "abi": [
    {
      "inputs": [],
      "stateMutability": "nonpayable",
      "type": "constructor"
    },
    {
      "inputs": [
        {
          "internalType": "address",
          "name": "sender",
          "type": "address"
        },
        {
          "internalType": "uint256",
          "name": "tokenId",
          "type": "uint256"
        },
        {
          "internalType": "address",
          "name": "owner",
          "type": "address"
        }
      ],
      "name": "ERC721IncorrectOwner",
      "type": "error"
    },
    {
      "inputs": [
        {
          "internalType": "address",
          "name": "operator",
          "type": "address"
        },
        {
          "internalType": "uint256",
          "name": "tokenId",
          "type": "uint256"
        }
      ],
      "name": "ERC721InsufficientApproval",
      "type": "error"
    },
    {
      "inputs": [
        {
          "internalType": "address",
          "name": "approver",
          "type": "address"
        }
      ],
      "name": "ERC721InvalidApprover",
      "type": "error"
    },
    {
      "inputs": [
        {
          "internalType": "address",
          "name": "operator",
          "type": "address"
        }
      ],
      "name": "ERC721InvalidOperator",
      "type": "error"
    },
    {
      "inputs": [
        {
          "internalType": "address",
          "name": "owner",
          "type": "address"
        }
      ],
      "name": "ERC721InvalidOwner",
      "type": "error"
    },
    {
      "inputs": [
        {
          "internalType": "address",
          "name": "receiver",
          "type": "address"
        }
      ],
      "name": "ERC721InvalidReceiver",
      "type": "error"
    },
    {
      "inputs": [
        {
          "internalType": "address",
          "name": "sender",
          "type": "address"
        }
      ],
      "name": "ERC721InvalidSender",
      "type": "error"
    },
    {
      "inputs": [
        {
          "internalType": "uint256",
          "name": "tokenId",
          "type": "uint256"
        }
      ],
      "name": "ERC721NonexistentToken",
      "type": "error"
    },
    {
      "inputs": [
        {
          "internalType": "address",
          "name": "owner",
          "type": "address"
        }
      ],
      "name": "OwnableInvalidOwner",
      "type": "error"
    },
    {
      "inputs": [
        {
          "internalType": "address",
          "name": "account",
          "type": "address"
        }
      ],
      "name": "OwnableUnauthorizedAccount",
      "type": "error"
    },
    {
      "anonymous": false,
      "inputs": [
        {
          "indexed": true,
          "internalType": "address",
          "name": "owner",
          "type": "address"
        },
        {
          "indexed": true,
          "internalType": "address",
          "name": "approved",
          "type": "address"
        },
        {
          "indexed": true,
          "internalType": "uint256",
          "name": "tokenId",
          "type": "uint256"
        }
      ],
      "name": "Approval",
      "type": "event"
    },
    {
      "anonymous": false,
      "inputs": [
        {
          "indexed": true,
          "internalType": "address",
          "name": "owner",
          "type": "address"
        },
        {
          "indexed": true,
          "internalType": "address",
          "name": "operator",
          "type": "address"
        },
        {
          "indexed": false,
          "internalType": "bool",
          "name": "approved",
          "type": "bool"
        }
      ],
      "name": "ApprovalForAll",
      "type": "event"
    },
    {
      "anonymous": false,
      "inputs": [
        {
          "indexed": false,
          "internalType": "uint256",
          "name": "_fromTokenId",
          "type": "uint256"
        },
        {
          "indexed": false,
          "internalType": "uint256",
          "name": "_toTokenId",
          "type": "uint256"
        }
      ],
      "name": "BatchMetadataUpdate",
      "type": "event"
    },
    {
      "anonymous": false,
      "inputs": [
        {
          "indexed": true,
          "internalType": "uint256",
          "name": "agentId",
          "type": "uint256"
        },
        {
          "indexed": true,
          "internalType": "string",
          "name": "indexedKey",
          "type": "string"
        },
        {
          "indexed": false,
          "internalType": "string",
          "name": "key",
          "type": "string"
        },
        {
          "indexed": false,
          "internalType": "bytes",
          "name": "value",
          "type": "bytes"
        }
      ],
      "name": "MetadataSet",
      "type": "event"
    },
    {
      "anonymous": false,
      "inputs": [
        {
          "indexed": false,
          "internalType": "uint256",
          "name": "_tokenId",
          "type": "uint256"
        }
      ],
      "name": "MetadataUpdate",
      "type": "event"
    },
    {
      "anonymous": false,
      "inputs": [
        {
          "indexed": true,
          "internalType": "address",
          "name": "previousOwner",
          "type": "address"
        },
        {
          "indexed": true,
          "internalType": "address",
          "name": "newOwner",
          "type": "address"
        }
      ],
      "name": "OwnershipTransferred",
      "type": "event"
    },
    {
      "anonymous": false,
      "inputs": [
        {
          "indexed": true,
          "internalType": "uint256",
          "name": "agentId",
          "type": "uint256"
        },
        {
          "indexed": false,
          "internalType": "string",
          "name": "tokenURI",
          "type": "string"
        },
        {
          "indexed": true,
          "internalType": "address",
          "name": "owner",
          "type": "address"
        }
      ],
      "name": "Registered",
      "type": "event"
    },
    {
      "anonymous": false,
      "inputs": [
        {
          "indexed": true,
          "internalType": "address",
          "name": "from",
          "type": "address"
        },
        {
          "indexed": true,
          "internalType": "address",
          "name": "to",
          "type": "address"
        },
        {
          "indexed": true,
          "internalType": "uint256",
          "name": "tokenId",
          "type": "uint256"
        }
      ],
      "name": "Transfer",
      "type": "event"
    },
    {
      "anonymous": false,
      "inputs": [
        {
          "indexed": true,
          "internalType": "uint256",
          "name": "agentId",
          "type": "uint256"
        },
        {
          "indexed": false,
          "internalType": "string",
          "name": "newUri",
          "type": "string"
        },
        {
          "indexed": true,
          "internalType": "address",
          "name": "updatedBy",
          "type": "address"
        }
      ],
      "name": "UriUpdated",
      "type": "event"
    },
    {
      "inputs": [
        {
          "internalType": "address",
          "name": "to",
          "type": "address"
        },
        {
          "internalType": "uint256",
          "name": "tokenId",
          "type": "uint256"
        }
      ],
      "name": "approve",
      "outputs": [],
      "stateMutability": "nonpayable",
      "type": "function"
    },
    {
      "inputs": [
        {
          "internalType": "address",
          "name": "owner",
          "type": "address"
        }
      ],
      "name": "balanceOf",
      "outputs": [
        {
          "internalType": "uint256",
          "name": "",
          "type": "uint256"
        }
      ],
      "stateMutability": "view",
      "type": "function"
    },
    {
      "inputs": [
        {
          "internalType": "uint256",
          "name": "tokenId",
          "type": "uint256"
        }
      ],
      "name": "getApproved",
      "outputs": [
        {
          "internalType": "address",
          "name": "",
          "type": "address"
        }
      ],
      "stateMutability": "view",
      "type": "function"
    },
    {
      "inputs": [
        {
          "internalType": "uint256",
          "name": "agentId",
          "type": "uint256"
        },
        {
          "internalType": "string",
          "name": "key",
          "type": "string"
        }
      ],
      "name": "getMetadata",
      "outputs": [
        {
          "internalType": "bytes",
          "name": "",
          "type": "bytes"
        }
      ],
      "stateMutability": "view",
      "type": "function"
    },
    {
      "inputs": [
        {
          "internalType": "address",
          "name": "owner",
          "type": "address"
        },
        {
          "internalType": "address",
          "name": "operator",
          "type": "address"
        }
      ],
      "name": "isApprovedForAll",
      "outputs": [
        {
          "internalType": "bool",
          "name": "",
          "type": "bool"
        }
      ],
      "stateMutability": "view",
      "type": "function"
    },
    {
      "inputs": [],
      "name": "name",
      "outputs": [
        {
          "internalType": "string",
          "name": "",
          "type": "string"
        }
      ],
      "stateMutability": "view",
      "type": "function"
    },
    {
      "inputs": [],
      "name": "owner",
      "outputs": [
        {
          "internalType": "address",
          "name": "",
          "type": "address"
        }
      ],
      "stateMutability": "view",
      "type": "function"
    },
    {
      "inputs": [
        {
          "internalType": "uint256",
          "name": "tokenId",
          "type": "uint256"
        }
      ],
      "name": "ownerOf",
      "outputs": [
        {
          "internalType": "address",
          "name": "",
          "type": "address"
        }
      ],
      "stateMutability": "view",
      "type": "function"
    },
    {
      "inputs": [],
      "name": "register",
      "outputs": [
        {
          "internalType": "uint256",
          "name": "agentId",
          "type": "uint256"
        }
      ],
      "stateMutability": "nonpayable",
      "type": "function"
    },
    {
      "inputs": [
        {
          "internalType": "string",
          "name": "tokenUri",
          "type": "string"
        },
        {
          "components": [
            {
              "internalType": "string",
              "name": "key",
              "type": "string"
            },
            {
              "internalType": "bytes",
              "name": "value",
              "type": "bytes"
            }
          ],
          "internalType": "struct IdentityRegistry.MetadataEntry[]",
          "name": "metadata",
          "type": "tuple[]"
        }
      ],
      "name": "register",
      "outputs": [
        {
          "internalType": "uint256",
          "name": "agentId",
          "type": "uint256"
        }
      ],
      "stateMutability": "nonpayable",
      "type": "function"
    },
    {
      "inputs": [
        {
          "internalType": "string",
          "name": "tokenUri",
          "type": "string"
        }
      ],
      "name": "register",
      "outputs": [
        {
          "internalType": "uint256",
          "name": "agentId",
          "type": "uint256"
        }
      ],
      "stateMutability": "nonpayable",
      "type": "function"
    },
    {
      "inputs": [],
      "name": "renounceOwnership",
      "outputs": [],
      "stateMutability": "nonpayable",
      "type": "function"
    },
    {
      "inputs": [
        {
          "internalType": "address",
          "name": "from",
          "type": "address"
        },
        {
          "internalType": "address",
          "name": "to",
          "type": "address"
        },
        {
          "internalType": "uint256",
          "name": "tokenId",
          "type": "uint256"
        }
      ],
      "name": "safeTransferFrom",
      "outputs": [],
      "stateMutability": "nonpayable",
      "type": "function"
    },
    {
      "inputs": [
        {
          "internalType": "address",
          "name": "from",
          "type": "address"
        },
        {
          "internalType": "address",
          "name": "to",
          "type": "address"
        },
        {
          "internalType": "uint256",
          "name": "tokenId",
          "type": "uint256"
        },
        {
          "internalType": "bytes",
          "name": "data",
          "type": "bytes"
        }
      ],
      "name": "safeTransferFrom",
      "outputs": [],
      "stateMutability": "nonpayable",
      "type": "function"
    },
    {
      "inputs": [
        {
          "internalType": "uint256",
          "name": "agentId",
          "type": "uint256"
        },
        {
          "internalType": "string",
          "name": "newUri",
          "type": "string"
        }
      ],
      "name": "setAgentUri",
      "outputs": [],
      "stateMutability": "nonpayable",
      "type": "function"
    },
    {
      "inputs": [
        {
          "internalType": "address",
          "name": "operator",
          "type": "address"
        },
        {
          "internalType": "bool",
          "name": "approved",
          "type": "bool"
        }
      ],
      "name": "setApprovalForAll",
      "outputs": [],
      "stateMutability": "nonpayable",
      "type": "function"
    },
    {
      "inputs": [
        {
          "internalType": "uint256",
          "name": "agentId",
          "type": "uint256"
        },
        {
          "internalType": "string",
          "name": "key",
          "type": "string"
        },
        {
          "internalType": "bytes",
          "name": "value",
          "type": "bytes"
        }
      ],
      "name": "setMetadata",
      "outputs": [],
      "stateMutability": "nonpayable",
      "type": "function"
    },
    {
      "inputs": [
        {
          "internalType": "bytes4",
          "name": "interfaceId",
          "type": "bytes4"
        }
      ],
      "name": "supportsInterface",
      "outputs": [
        {
          "internalType": "bool",
          "name": "",
          "type": "bool"
        }
      ],
      "stateMutability": "view",
      "type": "function"
    },
    {
      "inputs": [],
      "name": "symbol",
      "outputs": [
        {
          "internalType": "string",
          "name": "",
          "type": "string"
        }
      ],
      "stateMutability": "view",
      "type": "function"
    },
    {
      "inputs": [
        {
          "internalType": "uint256",
          "name": "tokenId",
          "type": "uint256"
        }
      ],
      "name": "tokenURI",
      "outputs": [
        {
          "internalType": "string",
          "name": "",
          "type": "string"
        }
      ],
      "stateMutability": "view",
      "type": "function"
    },
    {
      "inputs": [
        {
          "internalType": "address",
          "name": "from",
          "type": "address"
        },
        {
          "internalType": "address",
          "name": "to",
          "type": "address"
        },
        {
          "internalType": "uint256",
          "name": "tokenId",
          "type": "uint256"
        }
      ],
      "name": "transferFrom",
      "outputs": [],
      "stateMutability": "nonpayable",
      "type": "function"
    },
    {
      "inputs": [
        {
          "internalType": "address",
          "name": "newOwner",
          "type": "address"
        }
      ],
      "name": "transferOwnership",
      "outputs": [],
      "stateMutability": "nonpayable",
      "type": "function"
    }
  ],
  "bytecode": "0x60806040523461038e57604080519081016001600160401b0381118282101761029b576040908152600d82526c4167656e744964656e7469747960981b602083015280519081016001600160401b0381118282101761029b57604052600381526210525160ea1b602082015281516001600160401b03811161029b57600054600181811c91168015610384575b602082101461027b57601f8111610320575b50602092601f82116001146102bc57928192936000926102b1575b50508160011b916000199060031b1c1916176000555b80516001600160401b03811161029b57600154600181811c91168015610291575b602082101461027b57601f8111610216575b50602091601f82116001146101b2579181926000926101a7575b50508160011b916000199060031b1c1916176001555b33156101915760078054336001600160a01b03198216811790925560405191906001600160a01b03167f8be0079c531659141344cd1fd0a4f28419497f9722a3daafe3b4186f6b6457e0600080a360006008556119d390816103948239f35b631e4fbdf760e01b600052600060045260246000fd5b01519050388061011c565b601f198216926001600052806000209160005b8581106101fe575083600195106101e5575b505050811b01600155610132565b015160001960f88460031b161c191690553880806101d7565b919260206001819286850151815501940192016101c5565b60016000527fb10e2d527612073b26eecdfd717e6a320cf44b4afac2b0732d9fcbe2b7fa0cf6601f830160051c81019160208410610271575b601f0160051c01905b8181106102655750610102565b60008155600101610258565b909150819061024f565b634e487b7160e01b600052602260045260246000fd5b90607f16906100f0565b634e487b7160e01b600052604160045260246000fd5b0151905038806100b9565b601f1982169360008052806000209160005b86811061030857508360019596106102ef575b505050811b016000556100cf565b015160001960f88460031b161c191690553880806102e1565b919260206001819286850151815501940192016102ce565b600080527f290decd9548b62a8d60345a988386fc84ba6bc95484008f6362f93160ef3e563601f830160051c8101916020841061037a575b601f0160051c01905b81811061036e575061009e565b60008155600101610361565b9091508190610358565b90607f169061008c565b600080fdfe608080604052600436101561001357600080fd5b60003560e01c90816301ffc9a714610f205750806306fdde0314610e7b578063081812fc14610e5d578063095ea7b314610d6e5780631aa3a00814610d0757806323b872dd14610cf057806342842e0e14610cc0578063466648da14610a985780635a7531491461096a5780636352211e1461093a57806370a08231146108e4578063715018a6146108875780638da5cb5b1461085e5780638ea422861461051057806395d89b4114610443578063a22cb465146103a2578063b88d4fde14610346578063c87b56dd14610327578063cb4799f214610293578063e985e9c514610238578063f2c298be146101a05763f2fde38b1461011157600080fd5b3461019b57602036600319011261019b5761012a610fed565b61013261184b565b6001600160a01b0316801561018557600780546001600160a01b0319811683179091556001600160a01b03167f8be0079c531659141344cd1fd0a4f28419497f9722a3daafe3b4186f6b6457e0600080a3005b631e4fbdf760e01b600052600060045260246000fd5b600080fd5b3461019b57602036600319011261019b576004356001600160401b03811161019b576101d260209136906004016110c6565b600854906101df826111c6565b6008556101ec8233611509565b6101f68183611723565b817fca52e62c367d81bb2e328eb795f7c7ba24afb478408a26c0e201d155c449bc4a6040518581528061022d339588830190610fc8565b0390a3604051908152f35b3461019b57604036600319011261019b57610251610fed565b610259611003565b9060018060a01b0316600052600560205260406000209060018060a01b0316600052602052602060ff604060002054166040519015158152f35b3461019b57604036600319011261019b576024356001600160401b03811161019b5761030861030f6102f360206102d16103239536906004016110c6565b6004356000526009825260406000208260405194838680955193849201610fa5565b8201908152030190206040519283809261111e565b0382611053565b604051918291602083526020830190610fc8565b0390f35b3461019b57602036600319011261019b5761032361030f600435611495565b3461019b57608036600319011261019b5761035f610fed565b610367611003565b90604435606435926001600160401b03841161019b5761038e6103a09436906004016110c6565b9261039a8383836111eb565b33611874565b005b3461019b57604036600319011261019b576103bb610fed565b6024359081151580920361019b576001600160a01b031690811561042e57336000526005602052604060002082600052602052604060002060ff1981541660ff83161790556040519081527f17307eab39ab6107e8899845ad3d59bd9653f200f220920489ca2b5937696c3160203392a3005b50630b61174360e31b60005260045260246000fd5b3461019b57600036600319011261019b576040516000600154610465816110e4565b80845290600181169081156104ec575060011461048d575b6103238361030f81850382611053565b600160009081527fb10e2d527612073b26eecdfd717e6a320cf44b4afac2b0732d9fcbe2b7fa0cf6939250905b8082106104d25750909150810160200161030f61047d565b9192600181602092548385880101520191019092916104ba565b60ff191660208086019190915291151560051b8401909101915061030f905061047d565b3461019b57604036600319011261019b576004356001600160401b03811161019b576105409036906004016110c6565b6024356001600160401b03811161019b573660238201121561019b578060040135906001600160401b0382116107a4578160051b90604051926105866020840185611053565b8352602460208401928201019036821161019b5760248101925b8284106107c5578486600854906105b6826111c6565b6008556105c38233611509565b6105cd8183611723565b817fca52e62c367d81bb2e328eb795f7c7ba24afb478408a26c0e201d155c449bc4a604051602081528061060633956020830190610fc8565b0390a36000915b80518310156107ba576020610622848361146b565b5101519282600052600960205261065960206040600020610643848661146b565b5151908260405194838680955193849201610fa5565b8201908152030190208451946001600160401b0386116107a4576106878661068184546110e4565b846113d4565b602090601f87116001146107395795806106bd92600196979860009261072e575b50508160011b916000199060031b1c19161790565b90555b6106ca818461146b565b5151847f2c149ed548c6d2993cd73efe187df6eccabe4538091b33adbd25fafdb8a1468b6106f8848761146b565b515192610713602061070a878a61146b565b51015191611426565b9361072360405192839283611446565b0390a301919061060d565b0151905088806106a8565b90601f1987169183600052816000209260005b81811061078c575091600196979892918388959310610773575b505050811b0190556106c0565b015160001960f88460031b161c19169055878080610766565b8284015185556001909401936020938401930161074c565b634e487b7160e01b600052604160045260246000fd5b602082604051908152f35b83356001600160401b03811161019b5782016040602319823603011261019b5760405191604083018381106001600160401b038211176107a45760405260248201356001600160401b03811161019b5761082590602436918501016110c6565b83526044820135926001600160401b03841161019b5761084f6020949360248695369201016110c6565b838201528152019301926105a0565b3461019b57600036600319011261019b576007546040516001600160a01b039091168152602090f35b3461019b57600036600319011261019b576108a061184b565b600780546001600160a01b031981169091556000906001600160a01b03167f8be0079c531659141344cd1fd0a4f28419497f9722a3daafe3b4186f6b6457e08280a3005b3461019b57602036600319011261019b576001600160a01b03610905610fed565b1680156109245760005260036020526020604060002054604051908152f35b6322718ad960e21b600052600060045260246000fd5b3461019b57602036600319011261019b5760206109586004356114d2565b6040516001600160a01b039091168152f35b3461019b57604036600319011261019b576024356004356001600160401b03821161019b573660238301121561019b578160040135916001600160401b03831161019b576024810190602484369201011161019b577fb41beef75d9f8d55b985319b459e96f82453580af381391f1ad531eb8f8b5a3a906001600160a01b036109f2846114d2565b16803314908115610a73575b508015610a54575b610a0f90611397565b610a23610a1d36868461108f565b84611723565b83604051916020835281602084015260408301376000604085830101526040813395601f80199101168101030190a3005b50610a0f6001600160a01b03610a69856111a1565b1633149050610a06565b600090815260056020908152604080832033845290915290205460ff169050856109fe565b3461019b57606036600319011261019b576004356024356001600160401b03811161019b57610acb9036906004016110c6565b906044356001600160401b03811161019b57610aeb9036906004016110c6565b81600052600260205260018060a01b036040600020541633148015610c8a575b8015610c6b575b610b1b90611397565b8160005260096020526040600020602060405180928651610b3f8184868b01610fa5565b82019081520301902081516001600160401b0381116107a457610b668161068184546110e4565b6020601f8211600114610be457817f2c149ed548c6d2993cd73efe187df6eccabe4538091b33adbd25fafdb8a1468b949392610bb892600091610bd9575b508160011b916000199060031b1c19161790565b90555b610bc484611426565b93610bd460405192839283611446565b0390a3005b905084015188610ba4565b601f1982169083600052806000209160005b818110610c5357509183917f2c149ed548c6d2993cd73efe187df6eccabe4538091b33adbd25fafdb8a1468b96959460019410610c3a575b5050811b019055610bbb565b85015160001960f88460031b161c191690558780610c2e565b9192602060018192868a015181550194019201610bf6565b50610b1b6001600160a01b03610c80846111a1565b1633149050610b12565b506000828152600260209081526040808320546001600160a01b031683526005825280832033845290915290205460ff16610b0b565b3461019b576103a0610cd136611019565b9060405192610ce1602085611053565b6000845261039a8383836111eb565b3461019b576103a0610d0136611019565b916111eb565b3461019b57600036600319011261019b576020600854610d26816111c6565b600855610d338133611509565b604051828152600083820152817fca52e62c367d81bb2e328eb795f7c7ba24afb478408a26c0e201d155c449bc4a60403393a3604051908152f35b3461019b57604036600319011261019b57610d87610fed565b602435610d93816114d2565b33151580610e4a575b80610e1c575b610e075781906001600160a01b0384811691167f8c5be1e5ebec7d5bd14f71427d1e84f3dd0314c0f7b2291e5b200ac8c7c3b925600080a4600090815260046020526040902080546001600160a01b0319166001600160a01b03909216919091179055005b63a9fbf51f60e01b6000523360045260246000fd5b506001600160a01b038116600090815260056020908152604080832033845290915290205460ff1615610da2565b506001600160a01b038116331415610d9c565b3461019b57602036600319011261019b5760206109586004356111a1565b3461019b57600036600319011261019b5760405160008054610e9c816110e4565b80845290600181169081156104ec5750600114610ec3576103238361030f81850382611053565b60008080527f290decd9548b62a8d60345a988386fc84ba6bc95484008f6362f93160ef3e563939250905b808210610f065750909150810160200161030f61047d565b919260018160209254838588010152019101909291610eee565b3461019b57602036600319011261019b576004359063ffffffff60e01b821680920361019b57602091632483248360e11b8114908115610f62575b5015158152f35b6380ac58cd60e01b811491508115610f94575b8115610f83575b5083610f5b565b6301ffc9a760e01b14905083610f7c565b635b5e139f60e01b81149150610f75565b60005b838110610fb85750506000910152565b8181015183820152602001610fa8565b90602091610fe181518092818552858086019101610fa5565b601f01601f1916010190565b600435906001600160a01b038216820361019b57565b602435906001600160a01b038216820361019b57565b606090600319011261019b576004356001600160a01b038116810361019b57906024356001600160a01b038116810361019b579060443590565b90601f801991011681019081106001600160401b038211176107a457604052565b6001600160401b0381116107a457601f01601f191660200190565b92919261109b82611074565b916110a96040519384611053565b82948184528183011161019b578281602093846000960137010152565b9080601f8301121561019b578160206110e19335910161108f565b90565b90600182811c92168015611114575b60208310146110fe57565b634e487b7160e01b600052602260045260246000fd5b91607f16916110f3565b6000929181549161112e836110e4565b8083529260018116908115611184575060011461114a57505050565b60009081526020812093945091925b83831061116a575060209250010190565b600181602092949394548385870101520191019190611159565b915050602093945060ff929192191683830152151560051b010190565b6111aa816114d2565b506000908152600460205260409020546001600160a01b031690565b60001981146111d55760010190565b634e487b7160e01b600052601160045260246000fd5b6001600160a01b0390911691908215611381576000828152600260205260408120546001600160a01b03169383918590331515806112e9575b507fddf252ad1be2c89b69c2b068fc378daa952ba7f163c4a11628f55a4df523b3ef90826112b4575b83815260036020526040812060018154019055848152600260205260408120846bffffffffffffffffffffffff60a01b82541617905580a46001600160a01b031680830361129a57505050565b6364283d7b60e01b60005260045260245260445260646000fd5b600085815260046020526040902080546001600160a01b0319169055828152600360205260408120805460001901905561124d565b915091925080611332575b15611303579084849238611224565b83908561131c57602491637e27328960e01b8252600452fd5b60449163177e802f60e01b825233600452602452fd5b503385148015611360575b806112f45750838152600460205260408120546001600160a01b031633146112f4565b5084815260056020908152604080832033845290915281205460ff1661133d565b633250574960e11b600052600060045260246000fd5b1561139e57565b60405162461bcd60e51b815260206004820152600e60248201526d139bdd08185d5d1a1bdc9a5e995960921b6044820152606490fd5b601f82116113e157505050565b6000526020600020906020601f840160051c8301931061141c575b601f0160051c01905b818110611410575050565b60008155600101611405565b90915081906113fc565b61143e90602060405192828480945193849201610fa5565b810103902090565b909161145d6110e193604084526040840190610fc8565b916020818403910152610fc8565b805182101561147f5760209160051b010190565b634e487b7160e01b600052603260045260246000fd5b61149e816114d2565b5060005260066020526103086114be60406000206040519283809261111e565b60006040516114ce602082611053565b5290565b6000818152600260205260409020546001600160a01b03169081156114f5575090565b637e27328960e01b60005260045260246000fd5b906020906040519061151b8383611053565b600082526001600160a01b0384169384156113815760008281526002855260018060a01b036040822054168387827fddf252ad1be2c89b69c2b068fc378daa952ba7f163c4a11628f55a4df523b3ef81151595866116ef575b83815260038b5260408082208054600101905585825260028c52812080546001600160a01b0319168517905580a4506116d9573b6115b3575b50505050565b916115f191819495936040519384928392630a85bd0160e11b8452336004850152600060248501526044840152608060648401526084830190610fc8565b03816000885af18091600091611694575b509061165b5750503d15611653573d9061161b82611074565b916116296040519384611053565b82523d60008284013e5b815191826116505783633250574960e11b60005260045260246000fd5b01fd5b606090611633565b909291506001600160e01b03191663757a42ff60e11b016116805750388080806115ad565b633250574960e11b60005260045260246000fd5b8481813d83116116d2575b6116a98183611053565b810103126116ce5751906001600160e01b0319821682036116cb575038611602565b80fd5b5080fd5b503d61169f565b6339e3563760e11b600052600060045260246000fd5b600085815260046020526040902080546001600160a01b031916905582815260038b52604081208054600019019055611574565b919091806000526006602052604060002083516001600160401b0381116107a4576117528161068184546110e4565b6020601f82116001146117bf578160209493926117a8927ff8e1a15aba9398e019f0b49df1a4fde98ee17ae345cb5f6b5e2c27f5033e8ce797986000926117b45750508160011b916000199060031b1c19161790565b90555b604051908152a1565b0151905038806106a8565b601f1982169583600052816000209660005b818110611833575096600192849260209796957ff8e1a15aba9398e019f0b49df1a4fde98ee17ae345cb5f6b5e2c27f5033e8ce7999a1061181a575b505050811b0190556117ab565b015160001960f88460031b161c1916905538808061180d565b838301518955600190980197602093840193016117d1565b6007546001600160a01b0316330361185f57565b63118cdaa760e01b6000523360045260246000fd5b823b611882575b5050505050565b604051630a85bd0160e11b81526001600160a01b0391821660048201529181166024830152604482019390935260806064820152911691602090829081906118ce906084830190610fc8565b03816000865af1809160009161195a575b509061193857503d15611931573d6118f681611074565b906119046040519283611053565b81523d6000602083013e5b8051908161192c5782633250574960e11b60005260045260246000fd5b602001fd5b606061190f565b6001600160e01b03191663757a42ff60e11b016116805750388080808061187b565b6020813d602011611995575b8161197360209383611053565b810103126116ce5751906001600160e01b0319821682036116cb5750386118df565b3d915061196656fea2646970667358221220e7f0907db1f2ac73c6757bf0fb8cdfd9da1b9637506e050aa0471d3dc440185d64736f6c634300081c0033",
  "linkReferences": {},
  "deployedLinkReferences": {}
}