{
  "_format": "hh-sol-artifact-1",
  "contractName": "ReputationRegistryUpgradeable",
  "sourceName": "contracts/ReputationRegistryUpgradeable.sol",
  "abi": [
    {
      "inputs": [],
      "stateMutability": "nonpayable",
      "type": "constructor"
    },
    {
      "inputs": [
        {
          "internalType": "address",
          "name": "target",
          "type": "address"
        }
      ],
      "name": "AddressEmptyCode",
      "type": "error"
    },
    {
      "inputs": [],
      "name": "ECDSAInvalidSignature",
      "type": "error"
    },
    {
      "inputs": [
        {
          "internalType": "uint256",
          "name": "length",
          "type": "uint256"
        }
      ],
      "name": "ECDSAInvalidSignatureLength",
      "type": "error"
    },
    {
      "inputs": [
        {
          "internalType": "bytes32",
          "name": "s",
          "type": "bytes32"
        }
      ],
      "name": "ECDSAInvalidSignatureS",
      "type": "error"
    },
    {
      "inputs": [
        {
          "internalType": "address",
          "name": "implementation",
          "type": "address"
        }
      ],
      "name": "ERC1967InvalidImplementation",
      "type": "error"
    },
    {
      "inputs": [],
      "name": "ERC1967NonPayable",
      "type": "error"
    },
    {
      "inputs": [],
      "name": "FailedCall",
      "type": "error"
    },
    {
      "inputs": [],
      "name": "InvalidInitialization",
      "type": "error"
    },
    {
      "inputs": [],
      "name": "NotInitializing",
      "type": "error"
    },
    {
      "inputs": [
        {
          "internalType": "address",
          "name": "owner",
          "type": "address"
        }
      ],
      "name": "OwnableInvalidOwner",
      "type": "error"
    },
    {
      "inputs": [
        {
          "internalType": "address",
          "name": "account",
          "type": "address"
        }
      ],
      "name": "OwnableUnauthorizedAccount",
      "type": "error"
    },
    {
      "inputs": [],
      "name": "UUPSUnauthorizedCallContext",
      "type": "error"
    },
    {
      "inputs": [
        {
          "internalType": "bytes32",
          "name": "slot",
          "type": "bytes32"
        }
      ],
      "name": "UUPSUnsupportedProxiableUUID",
      "type": "error"
    },
    {
      "anonymous": false,
      "inputs": [
        {
          "indexed": true,
          "internalType": "uint256",
          "name": "agentId",
          "type": "uint256"
        },
        {
          "indexed": true,
          "internalType": "address",
          "name": "clientAddress",
          "type": "address"
        },
        {
          "indexed": true,
          "internalType": "uint64",
          "name": "feedbackIndex",
          "type": "uint64"
        }
      ],
      "name": "FeedbackRevoked",
      "type": "event"
    },
    {
      "anonymous": false,
      "inputs": [
        {
          "indexed": false,
          "internalType": "uint64",
          "name": "version",
          "type": "uint64"
        }
      ],
      "name": "Initialized",
      "type": "event"
    },
    {
      "anonymous": false,
      "inputs": [
        {
          "indexed": true,
          "internalType": "uint256",
          "name": "agentId",
          "type": "uint256"
        },
        {
          "indexed": true,
          "internalType": "address",
          "name": "clientAddress",
          "type": "address"
        },
        {
          "indexed": false,
          "internalType": "uint8",
          "name": "score",
          "type": "uint8"
        },
        {
          "indexed": true,
          "internalType": "bytes32",
          "name": "tag1",
          "type": "bytes32"
        },
        {
          "indexed": false,
          "internalType": "bytes32",
          "name": "tag2",
          "type": "bytes32"
        },
        {
          "indexed": false,
          "internalType": "string",
          "name": "feedbackUri",
          "type": "string"
        },
        {
          "indexed": false,
          "internalType": "bytes32",
          "name": "feedbackHash",
          "type": "bytes32"
        }
      ],
      "name": "NewFeedback",
      "type": "event"
    },
    {
      "anonymous": false,
      "inputs": [
        {
          "indexed": true,
          "internalType": "address",
          "name": "previousOwner",
          "type": "address"
        },
        {
          "indexed": true,
          "internalType": "address",
          "name": "newOwner",
          "type": "address"
        }
      ],
      "name": "OwnershipTransferred",
      "type": "event"
    },
    {
      "anonymous": false,
      "inputs": [
        {
          "indexed": true,
          "internalType": "uint256",
          "name": "agentId",
          "type": "uint256"
        },
        {
          "indexed": true,
          "internalType": "address",
          "name": "clientAddress",
          "type": "address"
        },
        {
          "indexed": false,
          "internalType": "uint64",
          "name": "feedbackIndex",
          "type": "uint64"
        },
        {
          "indexed": true,
          "internalType": "address",
          "name": "responder",
          "type": "address"
        },
        {
          "indexed": false,
          "internalType": "string",
          "name": "responseUri",
          "type": "string"
        },
        {
          "indexed": false,
          "internalType": "bytes32",
          "name": "responseHash",
          "type": "bytes32"
        }
      ],
      "name": "ResponseAppended",
      "type": "event"
    },
    {
      "anonymous": false,
      "inputs": [
        {
          "indexed": true,
          "internalType": "address",
          "name": "implementation",
          "type": "address"
        }
      ],
      "name": "Upgraded",
      "type": "event"
    },
    {
      "inputs": [],
      "name": "UPGRADE_INTERFACE_VERSION",
      "outputs": [
        {
          "internalType": "string",
          "name": "",
          "type": "string"
        }
      ],
      "stateMutability": "view",
      "type": "function"
    },
    {
      "inputs": [
        {
          "internalType": "uint256",
          "name": "agentId",
          "type": "uint256"
        },
        {
          "internalType": "address",
          "name": "clientAddress",
          "type": "address"
        },
        {
          "internalType": "uint64",
          "name": "feedbackIndex",
          "type": "uint64"
        },
        {
          "internalType": "string",
          "name": "responseUri",
          "type": "string"
        },
        {
          "internalType": "bytes32",
          "name": "responseHash",
          "type": "bytes32"
        }
      ],
      "name": "appendResponse",
      "outputs": [],
      "stateMutability": "nonpayable",
      "type": "function"
    },
    {
      "inputs": [
        {
          "internalType": "uint256",
          "name": "agentId",
          "type": "uint256"
        }
      ],
      "name": "getClients",
      "outputs": [
        {
          "internalType": "address[]",
          "name": "",
          "type": "address[]"
        }
      ],
      "stateMutability": "view",
      "type": "function"
    },
    {
      "inputs": [],
      "name": "getIdentityRegistry",
      "outputs": [
        {
          "internalType": "address",
          "name": "",
          "type": "address"
        }
      ],
      "stateMutability": "view",
      "type": "function"
    },
    {
      "inputs": [
        {
          "internalType": "uint256",
          "name": "agentId",
          "type": "uint256"
        },
        {
          "internalType": "address",
          "name": "clientAddress",
          "type": "address"
        }
      ],
      "name": "getLastIndex",
      "outputs": [
        {
          "internalType": "uint64",
          "name": "",
          "type": "uint64"
        }
      ],
      "stateMutability": "view",
      "type": "function"
    },
    {
      "inputs": [
        {
          "internalType": "uint256",
          "name": "agentId",
          "type": "uint256"
        },
        {
          "internalType": "address",
          "name": "clientAddress",
          "type": "address"
        },
        {
          "internalType": "uint64",
          "name": "feedbackIndex",
          "type": "uint64"
        },
        {
          "internalType": "address[]",
          "name": "responders",
          "type": "address[]"
        }
      ],
      "name": "getResponseCount",
      "outputs": [
        {
          "internalType": "uint64",
          "name": "count",
          "type": "uint64"
        }
      ],
      "stateMutability": "view",
      "type": "function"
    },
    {
      "inputs": [
        {
          "internalType": "uint256",
          "name": "agentId",
          "type": "uint256"
        },
        {
          "internalType": "address[]",
          "name": "clientAddresses",
          "type": "address[]"
        },
        {
          "internalType": "bytes32",
          "name": "tag1",
          "type": "bytes32"
        },
        {
          "internalType": "bytes32",
          "name": "tag2",
          "type": "bytes32"
        }
      ],
      "name": "getSummary",
      "outputs": [
        {
          "internalType": "uint64",
          "name": "count",
          "type": "uint64"
        },
        {
          "internalType": "uint8",
          "name": "averageScore",
          "type": "uint8"
        }
      ],
      "stateMutability": "view",
      "type": "function"
    },
    {
      "inputs": [],
      "name": "getVersion",
      "outputs": [
        {
          "internalType": "string",
          "name": "",
          "type": "string"
        }
      ],
      "stateMutability": "pure",
      "type": "function"
    },
    {
      "inputs": [
        {
          "internalType": "uint256",
          "name": "agentId",
          "type": "uint256"
        },
        {
          "internalType": "uint8",
          "name": "score",
          "type": "uint8"
        },
        {
          "internalType": "bytes32",
          "name": "tag1",
          "type": "bytes32"
        },
        {
          "internalType": "bytes32",
          "name": "tag2",
          "type": "bytes32"
        },
        {
          "internalType": "string",
          "name": "feedbackUri",
          "type": "string"
        },
        {
          "internalType": "bytes32",
          "name": "feedbackHash",
          "type": "bytes32"
        },
        {
          "internalType": "bytes",
          "name": "feedbackAuth",
          "type": "bytes"
        }
      ],
      "name": "giveFeedback",
      "outputs": [],
      "stateMutability": "nonpayable",
      "type": "function"
    },
    {
      "inputs": [
        {
          "internalType": "address",
          "name": "_identityRegistry",
          "type": "address"
        }
      ],
      "name": "initialize",
      "outputs": [],
      "stateMutability": "nonpayable",
      "type": "function"
    },
    {
      "inputs": [],
      "name": "owner",
      "outputs": [
        {
          "internalType": "address",
          "name": "",
          "type": "address"
        }
      ],
      "stateMutability": "view",
      "type": "function"
    },
    {
      "inputs": [],
      "name": "proxiableUUID",
      "outputs": [
        {
          "internalType": "bytes32",
          "name": "",
          "type": "bytes32"
        }
      ],
      "stateMutability": "view",
      "type": "function"
    },
    {
      "inputs": [
        {
          "internalType": "uint256",
          "name": "agentId",
          "type": "uint256"
        },
        {
          "internalType": "address[]",
          "name": "clientAddresses",
          "type": "address[]"
        },
        {
          "internalType": "bytes32",
          "name": "tag1",
          "type": "bytes32"
        },
        {
          "internalType": "bytes32",
          "name": "tag2",
          "type": "bytes32"
        },
        {
          "internalType": "bool",
          "name": "includeRevoked",
          "type": "bool"
        }
      ],
      "name": "readAllFeedback",
      "outputs": [
        {
          "internalType": "address[]",
          "name": "clients",
          "type": "address[]"
        },
        {
          "internalType": "uint8[]",
          "name": "scores",
          "type": "uint8[]"
        },
        {
          "internalType": "bytes32[]",
          "name": "tag1s",
          "type": "bytes32[]"
        },
        {
          "internalType": "bytes32[]",
          "name": "tag2s",
          "type": "bytes32[]"
        },
        {
          "internalType": "bool[]",
          "name": "revokedStatuses",
          "type": "bool[]"
        }
      ],
      "stateMutability": "view",
      "type": "function"
    },
    {
      "inputs": [
        {
          "internalType": "uint256",
          "name": "agentId",
          "type": "uint256"
        },
        {
          "internalType": "address",
          "name": "clientAddress",
          "type": "address"
        },
        {
          "internalType": "uint64",
          "name": "index",
          "type": "uint64"
        }
      ],
      "name": "readFeedback",
      "outputs": [
        {
          "internalType": "uint8",
          "name": "score",
          "type": "uint8"
        },
        {
          "internalType": "bytes32",
          "name": "tag1",
          "type": "bytes32"
        },
        {
          "internalType": "bytes32",
          "name": "tag2",
          "type": "bytes32"
        },
        {
          "internalType": "bool",
          "name": "isRevoked",
          "type": "bool"
        }
      ],
      "stateMutability": "view",
      "type": "function"
    },
    {
      "inputs": [],
      "name": "renounceOwnership",
      "outputs": [],
      "stateMutability": "nonpayable",
      "type": "function"
    },
    {
      "inputs": [
        {
          "internalType": "uint256",
          "name": "agentId",
          "type": "uint256"
        },
        {
          "internalType": "uint64",
          "name": "feedbackIndex",
          "type": "uint64"
        }
      ],
      "name": "revokeFeedback",
      "outputs": [],
      "stateMutability": "nonpayable",
      "type": "function"
    },
    {
      "inputs": [
        {
          "internalType": "address",
          "name": "newOwner",
          "type": "address"
        }
      ],
      "name": "transferOwnership",
      "outputs": [],
      "stateMutability": "nonpayable",
      "type": "function"
    },
    {
      "inputs": [
        {
          "internalType": "address",
          "name": "newImplementation",
          "type": "address"
        },
        {
          "internalType": "bytes",
          "name": "data",
          "type": "bytes"
        }
      ],
      "name": "upgradeToAndCall",
      "outputs": [],
      "stateMutability": "payable",
      "type": "function"
    }
  ],
  "bytecode": "0x60a080604052346100ea57306080527ff0c57e16840df040f15088dc2f81fe391c3923bec73e23a9662efc9c229c6a005460ff8160401c166100d9576002600160401b03196001600160401b03821601610073575b604051612aca90816100f08239608051818181610db90152610e5e0152f35b6001600160401b0319166001600160401b039081177ff0c57e16840df040f15088dc2f81fe391c3923bec73e23a9662efc9c229c6a005581527fc7f505b2f371ae2175ee4913f4499e1f2633a7b5936321eed1cdaeb6115181d290602090a13880610054565b63f92ee8a960e01b60005260046000fd5b600080fdfe6080604052600436101561001257600080fd5b6000803560e01c80630d8e6e2c146120e5578063155e5bbd14611506578063232b08101461143a57806331259cff146111e357806342dd519c146111625780634ab3ca99146110325780634f1ef28614610e0e57806352d1902d14610da65780636e04cacd14610b85578063715018a614610b1a57806380b87594146105fa5780638da5cb5b146105c4578063ad3cb1cc14610581578063bc4d861b1461055a578063c2349ab21461031d578063c4d66de814610162578063f2d81759146101125763f2fde38b146100e357600080fd5b3461010f57602036600319011261010f5761010c6100ff6121ae565b610107612816565b612580565b80f35b80fd5b503461010f57604036600319011261010f57604061012e612198565b9160043581526002602052209060018060a01b031660005260205260206001600160401b0360406000205416604051908152f35b503461010f57602036600319011261010f5761017c6121ae565b600080516020612a7583398151915254906001600160401b0360ff8360401c1615921680159081610315575b600114908161030b575b159081610302575b506102f3578160016001600160401b0319600080516020612a75833981519152541617600080516020612a75833981519152556102c1575b6001600160a01b0316801561028d5761020961284c565b61021161284c565b61021a33612580565b61022261284c565b82546001600160a01b0319161782556102385780f35b60ff60401b19600080516020612a758339815191525416600080516020612a75833981519152557fc7f505b2f371ae2175ee4913f4499e1f2633a7b5936321eed1cdaeb6115181d2602060405160018152a180f35b60405162461bcd60e51b815260206004820152600c60248201526b626164206964656e7469747960a01b6044820152606490fd5b600160401b60ff60401b19600080516020612a75833981519152541617600080516020612a75833981519152556101f2565b63f92ee8a960e01b8352600483fd5b905015386101ba565b303b1591506101b2565b8391506101a8565b503461010f5760a036600319011261010f5760043561033a612198565b906103436121d8565b90606435916001600160401b0383116105565761036c6001600160401b0393369060040161216b565b939091169261037c841515612421565b82865260026020526040862060018060a01b0386166000526020526103b16001600160401b0360406000205416851115612461565b8015610525578286526005602090815260408088206001600160a01b038816600090815290835281812087825283528181203382529092529020547fb1c6be0b5b8aef6539e2fac0fd131a2faa7b49edf8e505b5eb0ad487d56051d49261048e92909160ff16156104ab575b848852600360209081526040808a206001600160a01b038a1660009081529083528181208982528352818120338252909252902080546001600160401b0390610467908216612522565b166001600160401b0319825416179055604051958652606060208701526060860191612400565b608435604085015233946001600160a01b0316939081900390a480f35b84885260046020526040882060018060a01b0388166000526020526040600020866000526020526104e1604060002033906123a3565b848852600560209081526040808a206001600160a01b038a16600090815290835281812089825283528181203382529092529020805460ff1916600117905561041d565b60405162461bcd60e51b8152602060048201526009602482015268456d7074792055524960b81b6044820152606490fd5b8480fd5b503461010f578060031936011261010f57546040516001600160a01b039091168152602090f35b503461010f578060031936011261010f576105c060408051906105a4818361225b565b60058252640352e302e360dc1b60208301525191829182612122565b0390f35b503461010f578060031936011261010f57600080516020612a35833981519152546040516001600160a01b039091168152602090f35b503461010f5760a036600319011261010f576024356001600160401b038111610b165761062b9036906004016121ee565b60843592918315158403610b12578115610aac5761064a9136916124ba565b915b8190825b845181101561079b576004358452600260205260408085206001600160401b0391906001600160a01b03610684858a61250e565b51166001600160a01b0316600090815260209190915220541660015b816001600160401b03821611156106bb575050600101610650565b936004969296959195358252600160205260408080842060018060a01b036106e38b8861250e565b51166001600160a01b0316600090815260209182529182206001600160401b038916835290522084158061078d575b61077257604435151560443561077d575b61077257606435151590606435610761575b506107575761074661074c9161253f565b94612522565b9591959490946106a0565b9361074c90612522565b600201546064351415905038610735565b509361074c90612522565b5060443560018201541415610723565b5060ff600382015416610712565b506107a5826124a3565b916107b3604051938461225b565b808352601f196107c2826124a3565b013660208501376107d2816124a3565b6107df604051918261225b565b8181526107eb826124a3565b601f19013660208301376107fe8261254e565b936108088361254e565b9661082b610815856124a3565b94610823604051968761225b565b8086526124a3565b601f19013660208601378694875b82518110156109ef57600435895260026020526040808a206001600160401b0391906001600160a01b0361086d858861250e565b51166001600160a01b0316600090815260209190915220541660015b816001600160401b03821611156108a4575050600101610839565b9760049b929b9a919a35825260016020526040808d818520906108ce60018060a01b03918a61250e565b51166001600160a01b0316600090815260209182529182206001600160401b038d1683529052208415806109e1575b6109c65760443515156044356109d1575b6109c6578a8d60643515156064356109b6575b6109a95760036109989385938b61095161099e988d61094960ff9860018060a01b039261250e565b51169261250e565b5281548416610960868f61250e565b526109708560018401549261250e565b526002810154610980858a61250e565b5201541661098e828c61250e565b901515905261253f565b98612522565b9a919a999099610889565b5050509761099e90612522565b5060643560028401541415610921565b509761099e90612522565b506044356001820154141561090e565b5060ff6003820154166108fd565b610a0c84878b8d898d60405196879660a0885260a088019061221e565b868103602088015260208084519283815201930190855b818110610a905750505081610a439187610a5195940360408901526122e4565b9085820360608701526122e4565b8381036080850152602080845192838152019301915b818110610a75575050500390f35b82511515845285945060209384019390920191600101610a67565b825160ff16855289985060209485019490920191600101610a23565b505060043581526006602052604081206040518082602082945493848152019085526020852092855b818110610af0575050610aea9250038261225b565b9161064c565b84546001600160a01b0316835260019485019486945060209093019201610ad5565b8280fd5b5080fd5b503461010f578060031936011261010f57610b33612816565b600080516020612a3583398151915280546001600160a01b031981169091556000906001600160a01b03167f8be0079c531659141344cd1fd0a4f28419497f9722a3daafe3b4186f6b6457e08280a380f35b503461010f57608036600319011261010f57600435610ba2612198565b610baa6121d8565b906064356001600160401b03811161055657610bca9036906004016121ee565b85939092906001600160a01b038216610cff575050838552600660205260408520936040518086602082985493848152019089526020892092895b818110610cdd575050610c1a9250038661225b565b855b8551811015610cc157818752600260205260408088206001600160401b0391906001600160a01b03610c4e858b61250e565b51166001600160a01b031660009081526020919091522054600191165b806001600160401b0383161115610c86575050600101610c1c565b9095610cb5610cbb91610caf88888b8d610ca78a60018060a01b039261250e565b51168a612666565b90612383565b96612522565b90610c6b565b505050509050602091505b6001600160401b0360405191168152f35b84546001600160a01b031683526001948501948a945060209093019201610c05565b6001600160401b03819792939495971615600014610d9157508085604092979697959493955260026020522060018060a01b0384166000526020526001600160401b0360406000205416926001955b846001600160401b0388161115610d6d57505050505060209150610ccc565b9091929394610cb5610d8691610caf87878b8888612666565b959493929190610d4e565b91905060209550610da194612666565b610ccc565b503461010f578060031936011261010f577f00000000000000000000000000000000000000000000000000000000000000006001600160a01b03163003610dff576020604051600080516020612a558339815191528152f35b63703e46dd60e11b8152600490fd5b50604036600319011261010f57610e236121ae565b906024356001600160401b038111610b165736602382011215610b1657610e549036906024816004013591016122ad565b6001600160a01b037f00000000000000000000000000000000000000000000000000000000000000001630811490811561100f575b5061100057610e96612816565b6040516352d1902d60e01b8152926001600160a01b0381169190602085600481865afa80958596610fcc575b50610edb57634c9c8ce360e01b84526004839052602484fd5b909184600080516020612a558339815191528103610fba5750813b15610fa857600080516020612a5583398151915280546001600160a01b031916821790557fbc7cd75a20ee27fd9adebab32041f755214dbc6bffa90cc0225b39da2e5c2d3b8480a28151839015610f8e5780836020610f8295519101845af43d15610f86573d91610f6683612292565b92610f74604051948561225b565b83523d85602085013e61293e565b5080f35b60609161293e565b50505034610f995780f35b63b398979f60e01b8152600490fd5b634c9c8ce360e01b8452600452602483fd5b632a87526960e21b8552600452602484fd5b9095506020813d602011610ff8575b81610fe86020938361225b565b8101031261055657519438610ec2565b3d9150610fdb565b63703e46dd60e11b8252600482fd5b600080516020612a55833981519152546001600160a01b03161415905038610e89565b503461010f57604036600319011261010f57600435602435906001600160401b03821680920361115d57611067821515612421565b8083526002602090815260408085203360009081529252902054611096906001600160401b0316831115612461565b80835260016020526040832060018060a01b03331660005260205260406000208260005260205260ff600360406000200154166111265780835260016020818152604080862033600081815291845282822087835290935220600301805460ff1916909217909155907f25156fd3288212246d8b008d5921fde376c71ed14ac2e072a506eb06fde6d09d8480a480f35b60405162461bcd60e51b815260206004820152600f60248201526e105b1c9958591e481c995d9bdad959608a1b6044820152606490fd5b600080fd5b503461010f57602036600319011261010f576004358152600660205260408120604051918260208354918281520192825260208220915b8181106111c4576105c0856111b08187038261225b565b60405191829160208352602083019061221e565b82546001600160a01b0316845260209093019260019283019201611199565b503461010f57608036600319011261010f576004356024356001600160401b038111610b12576112179036906004016121ee565b6064359291604435919081156113d5576112329136916124ba565b92935b809181958290821515811515925b885181101561138557878652600260205260408087206001600160401b0391906001600160a01b03611275858e61250e565b51166001600160a01b031660009081526020919091522054600191165b806001600160401b03831611156112ad575050600101611243565b98909a9781889b939b52600160205260408c818d818c20906112d660018060a01b03918961250e565b51169060009160018060a01b03168252602052206001600160401b036000921682526020522060ff60038201541661135d578480611377575b61135d578680611369575b61135d5760ff90541681018091116113495761133961133f9199612522565b9b612522565b9098999199611292565b634e487b7160e01b88526011600452602488fd5b50979a61133f90612522565b50856002820154141561131a565b50876001820154141561130f565b866001600160401b038b16878115806113c8576113b4575060ff808260409404165b8351928352166020820152f35b634e487b7160e01b81526012600452602490fd5b506040925060ff906113a7565b50508184526006602052604084206040518082602082945493848152019088526020882092885b8181106114185750506114119250038261225b565b9293611235565b84546001600160a01b03168352600194850194869450602090930192016113fc565b503461010f57606036600319011261010f576040608091600435908261145e612198565b916001600160401b0361146f6121d8565b169361147c851515612421565b808252600260205282822060018060a01b0385166000526020526114af6001600160401b03846000205416861115612461565b81526001602052209060018060a01b03166000526020528160002060009182526020522060ff8154169060018101549060ff6003600283015492015416916040519384526020840152604083015215156060820152f35b503461010f5760e036600319011261010f576024359060ff821680920361010f576044356084356001600160401b038111610b125761154990369060040161216b565b939060c4356001600160401b0381116105565761156a90369060040161216b565b9490606484116120b45761157f6004356125f6565b156120785781546040516331a9108f60e11b815260048035908201526001600160a01b039091169190602081602481865afa908115611f47578491612059575b50336001600160a01b03821614159081611ff5575b5080611f97575b15611f52576040516331a9108f60e11b81526004803590820152602081602481865afa908115611f47578491611f28575b506001600160a01b031615611eee576101218710611eb3576040519260e084018481106001600160401b03821117611e9f576040528084528060208501528060408501528060608501528060808501528060a08501528060c08501528760e01161010f5750803561167f602083016121c4565b60408301356001600160401b038116810361115d576001600160401b03906116a960a086016121c4565b6001600160a01b036116bd60c088016121c4565b1660c08901526001600160a01b0390811660a089015260808681013590890152606080870135908901529116604087015216602085015280845260043503611e67576020830151336001600160a01b0390911603611e30576060830151421015611dfc5760808301514603611dc45760a08301516001600160a01b0316829003611d8b576001600160401b036040840151166004356000526002602052604060002060018060a01b0333166000526020526001600160401b03611786816040600020541661234f565b1611611d505760009660df1901835160018060a01b036020860151166001600160401b036040870151166060870151608088015160018060a01b0360a08a0151169160018060a01b0360c08b01511693604051956020870197885260408701526060860152608085015260a084015260c083015260e082015260e0815261180f6101008261225b565b5190207f19457468657265756d205369676e6564204d6573736167653a0a3332000000008952601c52603c882091611860611857611851368560e086016122ad565b8561287a565b909291926128b6565b60c08601516001600160a01b039081169116819003611c17575b50505050815191604051926331a9108f60e11b84526004840152602083602481855afa928315611beb578793611bf6575b5060c08101516001600160a01b038481169116908114938415611b75575b50508215611af0575b505015611ab3576004358452600260209081526040808620338752909152842054611905906001600160401b031661234f565b946040519560808701968088106001600160401b03891117611a9f57611a29949596976040528581526003602082019188835260408101606435815260608201938b85526004358c52600160205260408c2060018060a01b0333168d5260205260408c206001600160401b0387168d5260205260ff60408d2093511660ff19845416178355516001830155516002820155019051151560ff80198354169116179055600435875260026020526040872060018060a01b03331688526020526001600160401b036040882091166001600160401b0319825416179055600435865260076020526040862060018060a01b033316875260205260ff60408720541615611a5f575b6040519384526064356020850152608060408501526080840191612400565b60a43560608301527f54b3254e4cc01969e70376d20390cc2f6af90539d9adaa78a53ebcda17f78154339280600435930390a480f35b60043586526006602052611a7633604088206123a3565b60043586526007602090815260408088203389529091528620805460ff19166001179055611a0a565b634e487b7160e01b87526041600452602487fd5b60405162461bcd60e51b815260206004820152601560248201527414da59db995c881b9bdd08185d5d1a1bdc9a5e9959605a1b6044820152606490fd5b9091506020815160246040518095819363020604bf60e21b835260048301525afa918215611b6a578692611b39575b5060c001516001600160a01b0391821691161438806118d2565b611b5c91925060203d602011611b63575b611b54818361225b565b810190612318565b9038611b1f565b503d611b4a565b6040513d88823e3d90fd5b60405163e985e9c560e01b81526001600160a01b03918216600482015291166024820152909250602081604481855afa908115611beb578791611bbc575b509138806118c9565b611bde915060203d602011611be4575b611bd6818361225b565b810190612337565b38611bb3565b503d611bcc565b6040513d89823e3d90fd5b611c1091935060203d602011611b6357611b54818361225b565b91386118ab565b3b15611d175760c085015160408051630b135d3f60e11b81526004810195909552602485015260209284926001600160a01b039092169183918291611c6391604484019160e001612400565b03915afa908115611beb578791611cd0575b506001600160e01b0319166374eca2c160e11b01611c96573880808061187a565b60405162461bcd60e51b81526020600482015260126024820152714261642031323731207369676e617475726560701b6044820152606490fd5b90506020813d602011611d0f575b81611ceb6020938361225b565b81010312611d0b57516001600160e01b031981168103611d0b5738611c75565b8680fd5b3d9150611cde565b60405162461bcd60e51b8152602060048201526011602482015270496e76616c6964207369676e617475726560781b6044820152606490fd5b60405162461bcd60e51b8152602060048201526013602482015272125b99195e131a5b5a5d08195e18d959591959606a1b6044820152606490fd5b60405162461bcd60e51b81526020600482015260116024820152700a4caced2e6e8e4f240dad2e6dac2e8c6d607b1b6044820152606490fd5b60405162461bcd60e51b815260206004820152601060248201526f086d0c2d2dc92c840dad2e6dac2e8c6d60831b6044820152606490fd5b60405162461bcd60e51b815260206004820152600c60248201526b105d5d1a08195e1c1a5c995960a21b6044820152606490fd5b60405162461bcd60e51b815260206004820152600f60248201526e086d8d2cadce840dad2e6dac2e8c6d608b1b6044820152606490fd5b60405162461bcd60e51b815260206004820152601060248201526f082cecadce892c840dad2e6dac2e8c6d60831b6044820152606490fd5b634e487b7160e01b82526041600452602482fd5b60405162461bcd60e51b8152602060048201526013602482015272092dcecc2d8d2c840c2eae8d040d8cadccee8d606b1b6044820152606490fd5b60405162461bcd60e51b8152602060048201526012602482015271155b9c9959da5cdd195c9959081859d95b9d60721b6044820152606490fd5b611f41915060203d602011611b6357611b54818361225b565b3861160c565b6040513d86823e3d90fd5b60405162461bcd60e51b815260206004820152601960248201527f53656c662d666565646261636b206e6f7420616c6c6f776564000000000000006044820152606490fd5b5060405163020604bf60e21b81526004803590820152602081602481865afa908115611f47578491611fd6575b506001600160a01b03163314156115db565b611fef915060203d602011611b6357611b54818361225b565b38611fc4565b60405163e985e9c560e01b81526001600160a01b039190911660048201523360248201529050602081604481865afa908115611f4757849161203a575b5015386115d4565b612053915060203d602011611be457611bd6818361225b565b38612032565b612072915060203d602011611b6357611b54818361225b565b386115bf565b60405162461bcd60e51b81526020600482015260146024820152731059d95b9d08191bd95cc81b9bdd08195e1a5cdd60621b6044820152606490fd5b60405162461bcd60e51b8152602060048201526009602482015268073636f72653e3130360bc1b6044820152606490fd5b503461010f578060031936011261010f57506105c060405161210860408261225b565b60058152640312e302e360dc1b6020820152604051918291825b91909160208152825180602083015260005b818110612155575060409293506000838284010152601f8019910116010190565b8060208092870101516040828601015201612134565b9181601f8401121561115d578235916001600160401b03831161115d576020838186019501011161115d57565b602435906001600160a01b038216820361115d57565b600435906001600160a01b038216820361115d57565b35906001600160a01b038216820361115d57565b604435906001600160401b038216820361115d57565b9181601f8401121561115d578235916001600160401b03831161115d576020808501948460051b01011161115d57565b906020808351928381520192019060005b81811061223c5750505090565b82516001600160a01b031684526020938401939092019160010161222f565b90601f801991011681019081106001600160401b0382111761227c57604052565b634e487b7160e01b600052604160045260246000fd5b6001600160401b03811161227c57601f01601f191660200190565b9291926122b982612292565b916122c7604051938461225b565b82948184528183011161115d578281602093846000960137010152565b906020808351928381520192019060005b8181106123025750505090565b82518452602093840193909201916001016122f5565b9081602091031261115d57516001600160a01b038116810361115d5790565b9081602091031261115d5751801515810361115d5790565b6001600160401b036001911601906001600160401b03821161236d57565b634e487b7160e01b600052601160045260246000fd5b906001600160401b03809116911601906001600160401b03821161236d57565b805490600160401b82101561227c57600182018082558210156123ea576000526020600020019060018060a01b03166bffffffffffffffffffffffff60a01b825416179055565b634e487b7160e01b600052603260045260246000fd5b908060209392818452848401376000828201840152601f01601f1916010190565b1561242857565b60405162461bcd60e51b81526020600482015260116024820152700696e646578206d757374206265203e203607c1b6044820152606490fd5b1561246857565b60405162461bcd60e51b8152602060048201526013602482015272696e646578206f7574206f6620626f756e647360681b6044820152606490fd5b6001600160401b03811161227c5760051b60200190565b9291906124c6816124a3565b936124d4604051958661225b565b602085838152019160051b810192831161115d57905b8282106124f657505050565b60208091612503846121c4565b8152019101906124ea565b80518210156123ea5760209160051b010190565b6001600160401b03166001600160401b03811461236d5760010190565b600019811461236d5760010190565b90612558826124a3565b612565604051918261225b565b8281528092612576601f19916124a3565b0190602036910137565b6001600160a01b031680156125e057600080516020612a3583398151915280546001600160a01b0319811683179091556001600160a01b03167f8be0079c531659141344cd1fd0a4f28419497f9722a3daafe3b4186f6b6457e0600080a3565b631e4fbdf760e01b600052600060045260246000fd5b6000546040516331a9108f60e11b81526004810192909252602090829060249082906001600160a01b03165afa60009181612645575b506126375750600090565b6001600160a01b0316151590565b61265f91925060203d602011611b6357611b54818361225b565b903861262c565b6000959490939080612783575050826000526004602052604060002060018060a01b03821660005260205260406000206001600160401b0383166000526020526040600020926040518085602082975493848152019060005260206000209260005b8181106127615750506126dd9250038561225b565b6000955b8451871015612759576127516001918360005260036020526001600160401b036040808080600020600090888060a01b038b16825260205220600090848b16825260205220858060a01b036127368d8c61250e565b511690600091878060a01b0316825260205220541690612383565b9601956126e1565b955050505050565b84546001600160a01b03168352600194850194899450602090930192016126c8565b94600096949196945b8686101561280c5760008381526003602090815260408083206001600160a01b0388811685529083528184206001600160401b038a168552909252822090600589901b8b01359081168103610b12576001600160a01b031682526020526040902054600191612804916001600160401b031690612383565b95019461278c565b9650945050505050565b600080516020612a35833981519152546001600160a01b0316330361283757565b63118cdaa760e01b6000523360045260246000fd5b60ff600080516020612a758339815191525460401c161561286957565b631afcd79f60e31b60005260046000fd5b81519190604183036128ab576128a492506020820151906060604084015193015160001a9061299f565b9192909190565b505060009160029190565b919091600481101561292857806128cc57509050565b6000600182036128e75763f645eedf60e01b60005260046000fd5b5060028103612905578263fce698f760e01b60005260045260246000fd5b9091600360009214612915575050565b6335e2f38360e21b825260045260249150fd5b634e487b7160e01b600052602160045260246000fd5b90612964575080511561295357602081519101fd5b63d6bda27560e01b60005260046000fd5b81511580612996575b612975575090565b639996b31560e01b60009081526001600160a01b0391909116600452602490fd5b50803b1561296d565b91907f7fffffffffffffffffffffffffffffff5d576e7357a4501ddfe92f46681b20a08411612a28579160209360809260ff60009560405194855216868401526040830152606082015282805260015afa15612a1c576000516001600160a01b03811615612a105790600090600090565b50600090600190600090565b6040513d6000823e3d90fd5b5050506000916003919056fe9016d09d72d40fdae2fd8ceac6b6234c7706214fd39c1cd1e609a0528c199300360894a13ba1a3210667c828492db98dca3e2076cc3735a920a3ca505d382bbcf0c57e16840df040f15088dc2f81fe391c3923bec73e23a9662efc9c229c6a00a2646970667358221220a898e02f70912ac0f77ab225542e86c8d1e80ec224ee3327252c15d28b81f1ae64736f6c634300081c0033",
  "linkReferences": {},
  "deployedLinkReferences": {}
}