{
  "_format": "hh-sol-artifact-1",
  "contractName": "ReputationRegistry",
  "sourceName": "contracts/ReputationRegistry.sol",
  "abi": [
    {
      "inputs": [
        {
          "internalType": "address",
          "name": "_identityRegistry",
          "type": "address"
        }
      ],
      "stateMutability": "nonpayable",
      "type": "constructor"
    },
    {
      "inputs": [],
      "name": "ECDSAInvalidSignature",
      "type": "error"
    },
    {
      "inputs": [
        {
          "internalType": "uint256",
          "name": "length",
          "type": "uint256"
        }
      ],
      "name": "ECDSAInvalidSignatureLength",
      "type": "error"
    },
    {
      "inputs": [
        {
          "internalType": "bytes32",
          "name": "s",
          "type": "bytes32"
        }
      ],
      "name": "ECDSAInvalidSignatureS",
      "type": "error"
    },
    {
      "anonymous": false,
      "inputs": [
        {
          "indexed": true,
          "internalType": "uint256",
          "name": "agentId",
          "type": "uint256"
        },
        {
          "indexed": true,
          "internalType": "address",
          "name": "clientAddress",
          "type": "address"
        },
        {
          "indexed": true,
          "internalType": "uint64",
          "name": "feedbackIndex",
          "type": "uint64"
        }
      ],
      "name": "FeedbackRevoked",
      "type": "event"
    },
    {
      "anonymous": false,
      "inputs": [
        {
          "indexed": true,
          "internalType": "uint256",
          "name": "agentId",
          "type": "uint256"
        },
        {
          "indexed": true,
          "internalType": "address",
          "name": "clientAddress",
          "type": "address"
        },
        {
          "indexed": false,
          "internalType": "uint8",
          "name": "score",
          "type": "uint8"
        },
        {
          "indexed": true,
          "internalType": "bytes32",
          "name": "tag1",
          "type": "bytes32"
        },
        {
          "indexed": false,
          "internalType": "bytes32",
          "name": "tag2",
          "type": "bytes32"
        },
        {
          "indexed": false,
          "internalType": "string",
          "name": "feedbackUri",
          "type": "string"
        },
        {
          "indexed": false,
          "internalType": "bytes32",
          "name": "feedbackHash",
          "type": "bytes32"
        }
      ],
      "name": "NewFeedback",
      "type": "event"
    },
    {
      "anonymous": false,
      "inputs": [
        {
          "indexed": true,
          "internalType": "uint256",
          "name": "agentId",
          "type": "uint256"
        },
        {
          "indexed": true,
          "internalType": "address",
          "name": "clientAddress",
          "type": "address"
        },
        {
          "indexed": false,
          "internalType": "uint64",
          "name": "feedbackIndex",
          "type": "uint64"
        },
        {
          "indexed": true,
          "internalType": "address",
          "name": "responder",
          "type": "address"
        },
        {
          "indexed": false,
          "internalType": "string",
          "name": "responseUri",
          "type": "string"
        },
        {
          "indexed": false,
          "internalType": "bytes32",
          "name": "responseHash",
          "type": "bytes32"
        }
      ],
      "name": "ResponseAppended",
      "type": "event"
    },
    {
      "inputs": [
        {
          "internalType": "uint256",
          "name": "agentId",
          "type": "uint256"
        },
        {
          "internalType": "address",
          "name": "clientAddress",
          "type": "address"
        },
        {
          "internalType": "uint64",
          "name": "feedbackIndex",
          "type": "uint64"
        },
        {
          "internalType": "string",
          "name": "responseUri",
          "type": "string"
        },
        {
          "internalType": "bytes32",
          "name": "responseHash",
          "type": "bytes32"
        }
      ],
      "name": "appendResponse",
      "outputs": [],
      "stateMutability": "nonpayable",
      "type": "function"
    },
    {
      "inputs": [
        {
          "internalType": "uint256",
          "name": "agentId",
          "type": "uint256"
        }
      ],
      "name": "getClients",
      "outputs": [
        {
          "internalType": "address[]",
          "name": "",
          "type": "address[]"
        }
      ],
      "stateMutability": "view",
      "type": "function"
    },
    {
      "inputs": [],
      "name": "getIdentityRegistry",
      "outputs": [
        {
          "internalType": "address",
          "name": "",
          "type": "address"
        }
      ],
      "stateMutability": "view",
      "type": "function"
    },
    {
      "inputs": [
        {
          "internalType": "uint256",
          "name": "agentId",
          "type": "uint256"
        },
        {
          "internalType": "address",
          "name": "clientAddress",
          "type": "address"
        }
      ],
      "name": "getLastIndex",
      "outputs": [
        {
          "internalType": "uint64",
          "name": "",
          "type": "uint64"
        }
      ],
      "stateMutability": "view",
      "type": "function"
    },
    {
      "inputs": [
        {
          "internalType": "uint256",
          "name": "agentId",
          "type": "uint256"
        },
        {
          "internalType": "address",
          "name": "clientAddress",
          "type": "address"
        },
        {
          "internalType": "uint64",
          "name": "feedbackIndex",
          "type": "uint64"
        },
        {
          "internalType": "address[]",
          "name": "responders",
          "type": "address[]"
        }
      ],
      "name": "getResponseCount",
      "outputs": [
        {
          "internalType": "uint64",
          "name": "count",
          "type": "uint64"
        }
      ],
      "stateMutability": "view",
      "type": "function"
    },
    {
      "inputs": [
        {
          "internalType": "uint256",
          "name": "agentId",
          "type": "uint256"
        },
        {
          "internalType": "address[]",
          "name": "clientAddresses",
          "type": "address[]"
        },
        {
          "internalType": "bytes32",
          "name": "tag1",
          "type": "bytes32"
        },
        {
          "internalType": "bytes32",
          "name": "tag2",
          "type": "bytes32"
        }
      ],
      "name": "getSummary",
      "outputs": [
        {
          "internalType": "uint64",
          "name": "count",
          "type": "uint64"
        },
        {
          "internalType": "uint8",
          "name": "averageScore",
          "type": "uint8"
        }
      ],
      "stateMutability": "view",
      "type": "function"
    },
    {
      "inputs": [
        {
          "internalType": "uint256",
          "name": "agentId",
          "type": "uint256"
        },
        {
          "internalType": "uint8",
          "name": "score",
          "type": "uint8"
        },
        {
          "internalType": "bytes32",
          "name": "tag1",
          "type": "bytes32"
        },
        {
          "internalType": "bytes32",
          "name": "tag2",
          "type": "bytes32"
        },
        {
          "internalType": "string",
          "name": "feedbackUri",
          "type": "string"
        },
        {
          "internalType": "bytes32",
          "name": "feedbackHash",
          "type": "bytes32"
        },
        {
          "internalType": "bytes",
          "name": "feedbackAuth",
          "type": "bytes"
        }
      ],
      "name": "giveFeedback",
      "outputs": [],
      "stateMutability": "nonpayable",
      "type": "function"
    },
    {
      "inputs": [
        {
          "internalType": "uint256",
          "name": "agentId",
          "type": "uint256"
        },
        {
          "internalType": "address[]",
          "name": "clientAddresses",
          "type": "address[]"
        },
        {
          "internalType": "bytes32",
          "name": "tag1",
          "type": "bytes32"
        },
        {
          "internalType": "bytes32",
          "name": "tag2",
          "type": "bytes32"
        },
        {
          "internalType": "bool",
          "name": "includeRevoked",
          "type": "bool"
        }
      ],
      "name": "readAllFeedback",
      "outputs": [
        {
          "internalType": "address[]",
          "name": "clients",
          "type": "address[]"
        },
        {
          "internalType": "uint8[]",
          "name": "scores",
          "type": "uint8[]"
        },
        {
          "internalType": "bytes32[]",
          "name": "tag1s",
          "type": "bytes32[]"
        },
        {
          "internalType": "bytes32[]",
          "name": "tag2s",
          "type": "bytes32[]"
        },
        {
          "internalType": "bool[]",
          "name": "revokedStatuses",
          "type": "bool[]"
        }
      ],
      "stateMutability": "view",
      "type": "function"
    },
    {
      "inputs": [
        {
          "internalType": "uint256",
          "name": "agentId",
          "type": "uint256"
        },
        {
          "internalType": "address",
          "name": "clientAddress",
          "type": "address"
        },
        {
          "internalType": "uint64",
          "name": "index",
          "type": "uint64"
        }
      ],
      "name": "readFeedback",
      "outputs": [
        {
          "internalType": "uint8",
          "name": "score",
          "type": "uint8"
        },
        {
          "internalType": "bytes32",
          "name": "tag1",
          "type": "bytes32"
        },
        {
          "internalType": "bytes32",
          "name": "tag2",
          "type": "bytes32"
        },
        {
          "internalType": "bool",
          "name": "isRevoked",
          "type": "bool"
        }
      ],
      "stateMutability": "view",
      "type": "function"
    },
    {
      "inputs": [
        {
          "internalType": "uint256",
          "name": "agentId",
          "type": "uint256"
        },
        {
          "internalType": "uint64",
          "name": "feedbackIndex",
          "type": "uint64"
        }
      ],
      "name": "revokeFeedback",
      "outputs": [],
      "stateMutability": "nonpayable",
      "type": "function"
    }
  ],
  "bytecode": "0x60a0346100e357601f61253f38819003918201601f19168301916001600160401b038311848410176100e8578084926020946040528339810103126100e357516001600160a01b0381168082036100e357156100af5760805260405161244090816100ff8239608051818181610334015281816110040152818161107a015281816111da0152818161139c015281816116440152818161170401528181611b4701528181611be101526120940152f35b60405162461bcd60e51b815260206004820152600c60248201526b626164206964656e7469747960a01b6044820152606490fd5b600080fd5b634e487b7160e01b600052604160045260246000fdfe608080604052600436101561001357600080fd5b600090813560e01c908163155e5bbd14610f6a57508063232b081014610e9f57806331259cff14610c4957806342dd519c14610bc45780634ab3ca9914610aa25780636e04cacd1461088157806380b8759414610363578063bc4d861b1461031e578063c2349ab2146100e15763f2d817591461008f57600080fd5b346100de5760403660031901126100de5760406100aa611cf2565b9160043581526001602052209060018060a01b031660005260205260206001600160401b0360406000205416604051908152f35b80fd5b50346100de5760a03660031901126100de576004356100fe611cf2565b90610107611d1c565b90606435916001600160401b03831161031a576101306001600160401b03933690600401611cc5565b9390911692610140841515611f18565b82865260016020526040862060018060a01b0386166000526020526101756001600160401b0360406000205416851115611f58565b80156102e9578286526004602090815260408088206001600160a01b038816600090815290835281812087825283528181203382529092529020547fb1c6be0b5b8aef6539e2fac0fd131a2faa7b49edf8e505b5eb0ad487d56051d49261025292909160ff161561026f575b848852600260209081526040808a206001600160a01b038a1660009081529083528181208982528352818120338252909252902080546001600160401b039061022b908216612019565b166001600160401b0319825416179055604051958652606060208701526060860191611ef7565b608435604085015233946001600160a01b0316939081900390a480f35b84885260036020526040882060018060a01b0388166000526020526040600020866000526020526102a560406000203390611e95565b848852600460209081526040808a206001600160a01b038a16600090815290835281812089825283528181203382529092529020805460ff191660011790556101e1565b60405162461bcd60e51b8152602060048201526009602482015268456d7074792055524960b81b6044820152606490fd5b8480fd5b50346100de57806003193601126100de576040517f00000000000000000000000000000000000000000000000000000000000000006001600160a01b03168152602090f35b50346100de5760a03660031901126100de576024356001600160401b03811161087d57610394903690600401611d32565b60843592918315158403610879578115610813576103b3913691611fb1565b915b8190825b8451811015610503576004358452600160205260408085206001600160401b0391906001600160a01b036103ed858a612005565b51166001600160a01b0316600090815260209190915220541660015b816001600160401b03821611156104245750506001016103b9565b9360049692969591953582528160205260408080842060018060a01b0361044b8b88612005565b51166001600160a01b0316600090815260209182529182206001600160401b03891683529052208415806104f5575b6104da5760443515156044356104e5575b6104da576064351515906064356104c9575b506104bf576104ae6104b491612036565b94612019565b959195949094610409565b936104b490612019565b60020154606435141590503861049d565b50936104b490612019565b506044356001820154141561048b565b5060ff60038201541661047a565b5061050d82611f9a565b9161051b6040519384611dd3565b808352601f1961052a82611f9a565b0136602085013761053a81611f9a565b6105476040519182611dd3565b81815261055382611f9a565b601f190136602083013761056682612045565b9361057083612045565b9661059361057d85611f9a565b9461058b6040519687611dd3565b808652611f9a565b601f19013660208601378694875b825181101561075657600435895260016020526040808a206001600160401b0391906001600160a01b036105d58588612005565b51166001600160a01b0316600090815260209190915220541660015b816001600160401b038216111561060c5750506001016105a1565b9760049b929b9a919a358252816020526040808d8185209061063560018060a01b03918a612005565b51166001600160a01b0316600090815260209182529182206001600160401b038d168352905220841580610748575b61072d576044351515604435610738575b61072d578a8d606435151560643561071d575b6107105760036106ff9385938b6106b8610705988d6106b060ff9860018060a01b0392612005565b511692612005565b52815484166106c7868f612005565b526106d785600184015492612005565b5260028101546106e7858a612005565b520154166106f5828c612005565b9015159052612036565b98612019565b9a919a9990996105f1565b5050509761070590612019565b5060643560028401541415610688565b509761070590612019565b5060443560018201541415610675565b5060ff600382015416610664565b61077384878b8d898d60405196879660a0885260a0880190611d62565b868103602088015260208084519283815201930190855b8181106107f757505050816107aa91876107b89594036040890152611d9f565b908582036060870152611d9f565b8381036080850152602080845192838152019301915b8181106107dc575050500390f35b825115158452859450602093840193909201916001016107ce565b825160ff1685528998506020948501949092019160010161078a565b505060043581526005602052604081206040518082602082945493848152019085526020852092855b81811061085757505061085192500382611dd3565b916103b5565b84546001600160a01b031683526001948501948694506020909301920161083c565b8280fd5b5080fd5b50346100de5760803660031901126100de5760043561089e611cf2565b6108a6611d1c565b906064356001600160401b03811161031a576108c6903690600401611d32565b85939092906001600160a01b0382166109fb575050838552600560205260408520936040518086602082985493848152019089526020892092895b8181106109d957505061091692500386611dd3565b855b85518110156109bd57818752600160205260408088206001600160401b0391906001600160a01b0361094a858b612005565b51166001600160a01b031660009081526020919091522054600191165b806001600160401b0383161115610982575050600101610918565b90956109b16109b7916109ab88888b8d6109a38a60018060a01b0392612005565b51168a612101565b90611e75565b96612019565b90610967565b505050509050602091505b6001600160401b0360405191168152f35b84546001600160a01b031683526001948501948a945060209093019201610901565b6001600160401b03819792939495971615600014610a8d57508085604092979697959493955260016020522060018060a01b0384166000526020526001600160401b0360406000205416926001955b846001600160401b0388161115610a69575050505050602091506109c8565b90919293946109b1610a82916109ab87878b8888612101565b959493929190610a4a565b91905060209550610a9d94612101565b6109c8565b50346100de5760403660031901126100de57600435602435906001600160401b038216809203610bbf57610ad7821515611f18565b8083526001602090815260408085203360009081529252902054610b06906001600160401b0316831115611f58565b8083526020838152604080852033600090815290835281812085825290925290206003015460ff16610b88578083526020838152604080852033600081815291845282822086835290935220600301805460ff19166001179055907f25156fd3288212246d8b008d5921fde376c71ed14ac2e072a506eb06fde6d09d8480a480f35b60405162461bcd60e51b815260206004820152600f60248201526e105b1c9958591e481c995d9bdad959608a1b6044820152606490fd5b600080fd5b50346100de5760203660031901126100de576004358152600560205260408120604051918260208354918281520192825260208220915b818110610c2a57610c2685610c1281870382611dd3565b604051918291602083526020830190611d62565b0390f35b82546001600160a01b0316845260209093019260019283019201610bfb565b50346100de5760803660031901126100de576004356024356001600160401b03811161087957610c7d903690600401611d32565b606435929160443591908115610e3a57610c98913691611fb1565b92935b809181958290821515811515925b8851811015610dea57878652600160205260408087206001600160401b0391906001600160a01b03610cdb858e612005565b51166001600160a01b031660009081526020919091522054600191165b806001600160401b0383161115610d13575050600101610ca9565b98909a9781889b939b528760205260408c818d818c2090610d3b60018060a01b039189612005565b51169060009160018060a01b03168252602052206001600160401b036000921682526020522060ff600382015416610dc2578480610ddc575b610dc2578680610dce575b610dc25760ff9054168101809111610dae57610d9e610da49199612019565b9b612019565b9098999199610cf8565b634e487b7160e01b88526011600452602488fd5b50979a610da490612019565b508560028201541415610d7f565b508760018201541415610d74565b866001600160401b038b1687811580610e2d57610e19575060ff808260409404165b8351928352166020820152f35b634e487b7160e01b81526012600452602490fd5b506040925060ff90610e0c565b50508184526005602052604084206040518082602082945493848152019088526020882092885b818110610e7d575050610e7692500382611dd3565b9293610c9b565b84546001600160a01b0316835260019485019486945060209093019201610e61565b50346100de5760603660031901126100de5760406080916004359082610ec3611cf2565b916001600160401b03610ed4611d1c565b1693610ee1851515611f18565b808252600160205282822060018060a01b038516600052602052610f146001600160401b03846000205416861115611f58565b815280602052209060018060a01b03166000526020528160002060009182526020522060ff8154169060018101549060ff6003600283015492015416916040519384526020840152604083015215156060820152f35b90503461087d5760e036600319011261087d5760243560ff81168103610879576084356001600160401b038111611cc157610fa9903690600401611cc5565b9360c4356001600160401b03811161087d57610fc9903690600401611cc5565b9094606460ff861611611c935750610fe2600435612077565b15611c57576040516331a9108f60e11b815260048035908201526020816024817f00000000000000000000000000000000000000000000000000000000000000006001600160a01b03165afa908115611ad9578391611c38575b50336001600160a01b03821614159081611bb0575b5080611b29575b15611ae4576040516331a9108f60e11b815260048035908201526020816024817f00000000000000000000000000000000000000000000000000000000000000006001600160a01b03165afa908115611ad9578391611aba575b506001600160a01b031615611a80576101218110611a45576040519160e083018381106001600160401b03821117611a31576040528083528060208401528060408401528060608401528060808401528060a08401528060c08401528160e0116100de5750843561112560208701611d08565b60408701356001600160401b038116809103610bbf5761114760a08901611d08565b6001600160a01b0361115b60c08b01611d08565b1660c08701526001600160a01b0390811660a0870152608089810135908701526060808a0135908701526040860191909152166020840152808352600435036119f9576020820151336001600160a01b03909116036119c257606082015142101561198e57608082015146036119565760a08201516001600160a01b037f0000000000000000000000000000000000000000000000000000000000000000811691160361191d576001600160401b036040830151166004356000526001602052604060002060018060a01b0333166000526020526001600160401b036112478160406000205416611e41565b16116118e25760009460df19820190835160018060a01b036020860151166001600160401b036040870151166060870151608088015160018060a01b0360a08a0151169160018060a01b0360c08b01511693604051956020870197885260408701526060860152608085015260a084015260c083015260e082015260e081526112d261010082611dd3565b5190207f19457468657265756d205369676e6564204d6573736167653a0a3332000000008852601c52603c8720926001600160401b0383116118ce576040519061132760c0198201601f191660200183611dd3565b83825236818401116118ca5761135c9189611353928660e087016020850137820160bf190152856122b1565b909291926122ed565b60c08501516001600160a01b039081169116819003611795575b505082516040516331a9108f60e11b8152600481019190915292915060209050826024817f00000000000000000000000000000000000000000000000000000000000000006001600160a01b03165afa9182156116c6578592611774575b5060c08101516001600160a01b0383811691169081149283156116d1575b50508115611623575b50156115e657600435835260016020908152604080852033865290915283205461142d906001600160401b0316611e41565b936040519460808601958087106001600160401b038811176115d25761155794959660405260ff8616815260036020820191604435835260408101606435815260608201938a85526004358b528a60205260408b2060018060a01b0333168c5260205260408b206001600160401b0387168c5260205260ff60408c2093511660ff19845416178355516001830155516002820155019051151560ff80198354169116179055600435865260016020526040862060018060a01b03331687526020526001600160401b036040872091166001600160401b0319825416179055600435855260066020526040852060018060a01b033316865260205260ff60408620541615611592575b60ff604051941684526064356020850152608060408501526080840191611ef7565b9060a4356060820152604435917f54b3254e4cc01969e70376d20390cc2f6af90539d9adaa78a53ebcda17f78154339280600435930390a480f35b600435855260056020526115a93360408720611e95565b60043585526006602090815260408087203388529091528520805460ff19166001179055611535565b634e487b7160e01b86526041600452602486fd5b60405162461bcd60e51b815260206004820152601560248201527414da59db995c881b9bdd08185d5d1a1bdc9a5e9959605a1b6044820152606490fd5b805160405163020604bf60e21b8152600481019190915291506020826024817f00000000000000000000000000000000000000000000000000000000000000006001600160a01b03165afa9182156116c6578592611695575b5060c001516001600160a01b03918216911614386113fb565b6116b891925060203d6020116116bf575b6116b08183611dd3565b810190611e0a565b903861167c565b503d6116a6565b6040513d87823e3d90fd5b60405163e985e9c560e01b81526001600160a01b03918216600482015291166024820152909150602081806044810103817f00000000000000000000000000000000000000000000000000000000000000006001600160a01b03165afa9081156116c6578591611745575b509038806113f2565b611767915060203d60201161176d575b61175f8183611dd3565b810190611e29565b3861173c565b503d611755565b61178e91925060203d6020116116bf576116b08183611dd3565b90386113d4565b3b156118915760c084015160408051630b135d3f60e11b81526004810195909552602485015260209284926001600160a01b0390921691839182916117e191604484019160e001611ef7565b03915afa9081156116c657859161184e575b506001600160e01b0319166374eca2c160e11b016118145738808080611376565b60405162461bcd60e51b81526020600482015260126024820152714261642031323731207369676e617475726560701b6044820152606490fd5b90506020813d602011611889575b8161186960209383611dd3565b8101031261031a57516001600160e01b03198116810361031a57386117f3565b3d915061185c565b60405162461bcd60e51b8152602060048201526011602482015270496e76616c6964207369676e617475726560781b6044820152606490fd5b8880fd5b634e487b7160e01b88526041600452602488fd5b60405162461bcd60e51b8152602060048201526013602482015272125b99195e131a5b5a5d08195e18d959591959606a1b6044820152606490fd5b60405162461bcd60e51b81526020600482015260116024820152700a4caced2e6e8e4f240dad2e6dac2e8c6d607b1b6044820152606490fd5b60405162461bcd60e51b815260206004820152601060248201526f086d0c2d2dc92c840dad2e6dac2e8c6d60831b6044820152606490fd5b60405162461bcd60e51b815260206004820152600c60248201526b105d5d1a08195e1c1a5c995960a21b6044820152606490fd5b60405162461bcd60e51b815260206004820152600f60248201526e086d8d2cadce840dad2e6dac2e8c6d608b1b6044820152606490fd5b60405162461bcd60e51b815260206004820152601060248201526f082cecadce892c840dad2e6dac2e8c6d60831b6044820152606490fd5b634e487b7160e01b82526041600452602482fd5b60405162461bcd60e51b8152602060048201526013602482015272092dcecc2d8d2c840c2eae8d040d8cadccee8d606b1b6044820152606490fd5b60405162461bcd60e51b8152602060048201526012602482015271155b9c9959da5cdd195c9959081859d95b9d60721b6044820152606490fd5b611ad3915060203d6020116116bf576116b08183611dd3565b386110b2565b6040513d85823e3d90fd5b60405162461bcd60e51b815260206004820152601960248201527f53656c662d666565646261636b206e6f7420616c6c6f776564000000000000006044820152606490fd5b5060405163020604bf60e21b815260048035908201526020816024817f00000000000000000000000000000000000000000000000000000000000000006001600160a01b03165afa908115611ad9578391611b91575b506001600160a01b0316331415611058565b611baa915060203d6020116116bf576116b08183611dd3565b38611b7f565b60405163e985e9c560e01b81526001600160a01b0391821660048201523360248201529150602090829060449082907f0000000000000000000000000000000000000000000000000000000000000000165afa908115611ad9578391611c19575b501538611051565b611c32915060203d60201161176d5761175f8183611dd3565b38611c11565b611c51915060203d6020116116bf576116b08183611dd3565b3861103c565b60405162461bcd60e51b81526020600482015260146024820152731059d95b9d08191bd95cc81b9bdd08195e1a5cdd60621b6044820152606490fd5b62461bcd60e51b8152602060048201526009602482015268073636f72653e3130360bc1b6044820152606490fd5b8380fd5b9181601f84011215610bbf578235916001600160401b038311610bbf5760208381860195010111610bbf57565b602435906001600160a01b0382168203610bbf57565b35906001600160a01b0382168203610bbf57565b604435906001600160401b0382168203610bbf57565b9181601f84011215610bbf578235916001600160401b038311610bbf576020808501948460051b010111610bbf57565b906020808351928381520192019060005b818110611d805750505090565b82516001600160a01b0316845260209384019390920191600101611d73565b906020808351928381520192019060005b818110611dbd5750505090565b8251845260209384019390920191600101611db0565b90601f801991011681019081106001600160401b03821117611df457604052565b634e487b7160e01b600052604160045260246000fd5b90816020910312610bbf57516001600160a01b0381168103610bbf5790565b90816020910312610bbf57518015158103610bbf5790565b6001600160401b036001911601906001600160401b038211611e5f57565b634e487b7160e01b600052601160045260246000fd5b906001600160401b03809116911601906001600160401b038211611e5f57565b80549068010000000000000000821015611df45760018201808255821015611ee1576000526020600020019060018060a01b03166bffffffffffffffffffffffff60a01b825416179055565b634e487b7160e01b600052603260045260246000fd5b908060209392818452848401376000828201840152601f01601f1916010190565b15611f1f57565b60405162461bcd60e51b81526020600482015260116024820152700696e646578206d757374206265203e203607c1b6044820152606490fd5b15611f5f57565b60405162461bcd60e51b8152602060048201526013602482015272696e646578206f7574206f6620626f756e647360681b6044820152606490fd5b6001600160401b038111611df45760051b60200190565b929190611fbd81611f9a565b93611fcb6040519586611dd3565b602085838152019160051b8101928311610bbf57905b828210611fed57505050565b60208091611ffa84611d08565b815201910190611fe1565b8051821015611ee15760209160051b010190565b6001600160401b03166001600160401b038114611e5f5760010190565b6000198114611e5f5760010190565b9061204f82611f9a565b61205c6040519182611dd3565b828152809261206d601f1991611f9a565b0190602036910137565b6040516331a9108f60e11b815260048101919091526020816024817f00000000000000000000000000000000000000000000000000000000000000006001600160a01b03165afa600091816120e0575b506120d25750600090565b6001600160a01b0316151590565b6120fa91925060203d6020116116bf576116b08183611dd3565b90386120c7565b600095949093908061221e575050826000526003602052604060002060018060a01b03821660005260205260406000206001600160401b0383166000526020526040600020926040518085602082975493848152019060005260206000209260005b8181106121fc57505061217892500385611dd3565b6000955b84518710156121f4576121ec6001918360005260026020526001600160401b036040808080600020600090888060a01b038b16825260205220600090848b16825260205220858060a01b036121d18d8c612005565b511690600091878060a01b0316825260205220541690611e75565b96019561217c565b955050505050565b84546001600160a01b0316835260019485019489945060209093019201612163565b94600096949196945b868610156122a75760008381526002602090815260408083206001600160a01b0388811685529083528184206001600160401b038a168552909252822090600589901b8b01359081168103610879576001600160a01b03168252602052604090205460019161229f916001600160401b031690611e75565b950194612227565b9650945050505050565b81519190604183036122e2576122db92506020820151906060604084015193015160001a90612375565b9192909190565b505060009160029190565b919091600481101561235f578061230357509050565b60006001820361231e5763f645eedf60e01b60005260046000fd5b506002810361233c578263fce698f760e01b60005260045260246000fd5b909160036000921461234c575050565b6335e2f38360e21b825260045260249150fd5b634e487b7160e01b600052602160045260246000fd5b91907f7fffffffffffffffffffffffffffffff5d576e7357a4501ddfe92f46681b20a084116123fe579160209360809260ff60009560405194855216868401526040830152606082015282805260015afa156123f2576000516001600160a01b038116156123e65790600090600090565b50600090600190600090565b6040513d6000823e3d90fd5b5050506000916003919056fea2646970667358221220dd855111c55e1bb4fe94ac387631d9ea77c81d89292c2c442d8f52b30fb81a2f64736f6c634300081c0033",
  "linkReferences": {},
  "deployedLinkReferences": {}
}