{
  "_format": "hh-sol-artifact-1",
  "contractName": "MockUSDC",
  "sourceName": "contracts/MockUSDC.sol",
  "abi": [
    {
      "inputs": [],
      "stateMutability": "nonpayable",
      "type": "constructor"
    },
    {
      "inputs": [
        {
          "internalType": "address",
          "name": "spender",
          "type": "address"
        },
        {
          "internalType": "uint256",
          "name": "allowance",
          "type": "uint256"
        },
        {
          "internalType": "uint256",
          "name": "needed",
          "type": "uint256"
        }
      ],
      "name": "ERC20InsufficientAllowance",
      "type": "error"
    },
    {
      "inputs": [
        {
          "internalType": "address",
          "name": "sender",
          "type": "address"
        },
        {
          "internalType": "uint256",
          "name": "balance",
          "type": "uint256"
        },
        {
          "internalType": "uint256",
          "name": "needed",
          "type": "uint256"
        }
      ],
      "name": "ERC20InsufficientBalance",
      "type": "error"
    },
    {
      "inputs": [
        {
          "internalType": "address",
          "name": "approver",
          "type": "address"
        }
      ],
      "name": "ERC20InvalidApprover",
      "type": "error"
    },
    {
      "inputs": [
        {
          "internalType": "address",
          "name": "receiver",
          "type": "address"
        }
      ],
      "name": "ERC20InvalidReceiver",
      "type": "error"
    },
    {
      "inputs": [
        {
          "internalType": "address",
          "name": "sender",
          "type": "address"
        }
      ],
      "name": "ERC20InvalidSender",
      "type": "error"
    },
    {
      "inputs": [
        {
          "internalType": "address",
          "name": "spender",
          "type": "address"
        }
      ],
      "name": "ERC20InvalidSpender",
      "type": "error"
    },
    {
      "anonymous": false,
      "inputs": [
        {
          "indexed": true,
          "internalType": "address",
          "name": "owner",
          "type": "address"
        },
        {
          "indexed": true,
          "internalType": "address",
          "name": "spender",
          "type": "address"
        },
        {
          "indexed": false,
          "internalType": "uint256",
          "name": "value",
          "type": "uint256"
        }
      ],
      "name": "Approval",
      "type": "event"
    },
    {
      "anonymous": false,
      "inputs": [
        {
          "indexed": true,
          "internalType": "address",
          "name": "from",
          "type": "address"
        },
        {
          "indexed": true,
          "internalType": "address",
          "name": "to",
          "type": "address"
        },
        {
          "indexed": false,
          "internalType": "uint256",
          "name": "value",
          "type": "uint256"
        }
      ],
      "name": "Transfer",
      "type": "event"
    },
    {
      "inputs": [],
      "name": "DOMAIN_SEPARATOR",
      "outputs": [
        {
          "internalType": "bytes32",
          "name": "",
          "type": "bytes32"
        }
      ],
      "stateMutability": "view",
      "type": "function"
    },
    {
      "inputs": [],
      "name": "PERMIT_TYPEHASH",
      "outputs": [
        {
          "internalType": "bytes32",
          "name": "",
          "type": "bytes32"
        }
      ],
      "stateMutability": "view",
      "type": "function"
    },
    {
      "inputs": [
        {
          "internalType": "address",
          "name": "owner",
          "type": "address"
        },
        {
          "internalType": "address",
          "name": "spender",
          "type": "address"
        }
      ],
      "name": "allowance",
      "outputs": [
        {
          "internalType": "uint256",
          "name": "",
          "type": "uint256"
        }
      ],
      "stateMutability": "view",
      "type": "function"
    },
    {
      "inputs": [
        {
          "internalType": "address",
          "name": "spender",
          "type": "address"
        },
        {
          "internalType": "uint256",
          "name": "value",
          "type": "uint256"
        }
      ],
      "name": "approve",
      "outputs": [
        {
          "internalType": "bool",
          "name": "",
          "type": "bool"
        }
      ],
      "stateMutability": "nonpayable",
      "type": "function"
    },
    {
      "inputs": [
        {
          "internalType": "bytes32",
          "name": "",
          "type": "bytes32"
        }
      ],
      "name": "authorizationState",
      "outputs": [
        {
          "internalType": "bool",
          "name": "",
          "type": "bool"
        }
      ],
      "stateMutability": "view",
      "type": "function"
    },
    {
      "inputs": [
        {
          "internalType": "address",
          "name": "account",
          "type": "address"
        }
      ],
      "name": "balanceOf",
      "outputs": [
        {
          "internalType": "uint256",
          "name": "",
          "type": "uint256"
        }
      ],
      "stateMutability": "view",
      "type": "function"
    },
    {
      "inputs": [],
      "name": "decimals",
      "outputs": [
        {
          "internalType": "uint8",
          "name": "",
          "type": "uint8"
        }
      ],
      "stateMutability": "view",
      "type": "function"
    },
    {
      "inputs": [
        {
          "internalType": "address",
          "name": "to",
          "type": "address"
        },
        {
          "internalType": "uint256",
          "name": "amount",
          "type": "uint256"
        }
      ],
      "name": "mint",
      "outputs": [],
      "stateMutability": "nonpayable",
      "type": "function"
    },
    {
      "inputs": [],
      "name": "name",
      "outputs": [
        {
          "internalType": "string",
          "name": "",
          "type": "string"
        }
      ],
      "stateMutability": "view",
      "type": "function"
    },
    {
      "inputs": [],
      "name": "symbol",
      "outputs": [
        {
          "internalType": "string",
          "name": "",
          "type": "string"
        }
      ],
      "stateMutability": "view",
      "type": "function"
    },
    {
      "inputs": [],
      "name": "totalSupply",
      "outputs": [
        {
          "internalType": "uint256",
          "name": "",
          "type": "uint256"
        }
      ],
      "stateMutability": "view",
      "type": "function"
    },
    {
      "inputs": [
        {
          "internalType": "address",
          "name": "to",
          "type": "address"
        },
        {
          "internalType": "uint256",
          "name": "value",
          "type": "uint256"
        }
      ],
      "name": "transfer",
      "outputs": [
        {
          "internalType": "bool",
          "name": "",
          "type": "bool"
        }
      ],
      "stateMutability": "nonpayable",
      "type": "function"
    },
    {
      "inputs": [
        {
          "internalType": "address",
          "name": "from",
          "type": "address"
        },
        {
          "internalType": "address",
          "name": "to",
          "type": "address"
        },
        {
          "internalType": "uint256",
          "name": "value",
          "type": "uint256"
        }
      ],
      "name": "transferFrom",
      "outputs": [
        {
          "internalType": "bool",
          "name": "",
          "type": "bool"
        }
      ],
      "stateMutability": "nonpayable",
      "type": "function"
    },
    {
      "inputs": [
        {
          "internalType": "address",
          "name": "from",
          "type": "address"
        },
        {
          "internalType": "address",
          "name": "to",
          "type": "address"
        },
        {
          "internalType": "uint256",
          "name": "value",
          "type": "uint256"
        },
        {
          "internalType": "uint256",
          "name": "validAfter",
          "type": "uint256"
        },
        {
          "internalType": "uint256",
          "name": "validBefore",
          "type": "uint256"
        },
        {
          "internalType": "bytes32",
          "name": "nonce",
          "type": "bytes32"
        },
        {
          "internalType": "uint8",
          "name": "v",
          "type": "uint8"
        },
        {
          "internalType": "bytes32",
          "name": "r",
          "type": "bytes32"
        },
        {
          "internalType": "bytes32",
          "name": "s",
          "type": "bytes32"
        }
      ],
      "name": "transferWithAuthorization",
      "outputs": [],
      "stateMutability": "nonpayable",
      "type": "function"
    }
  ],
  "bytecode": "0x60806040523461045a5760405161001760408261045f565b60088152672aa9a21021b7b4b760c11b602082015260405161003a60408261045f565b60048152635553444360e01b602082015281516001600160401b03811161036557600354600181811c91168015610450575b602082101461034557601f81116103eb575b50602092601f8211600114610386579281929360009261037b575b50508160011b916000199060031b1c1916176003555b80516001600160401b03811161036557600454600181811c9116801561035b575b602082101461034557601f81116102e0575b50602091601f821160011461027c57918192600092610271575b50508160011b916000199060031b1c1916176004555b331561025b5760025464e8d4a510008101809111610245576002556000338152806020526040812064e8d4a51000815401905560405164e8d4a510008152817fddf252ad1be2c89b69c2b068fc378daa952ba7f163c4a11628f55a4df523b3ef60203393a360405161018560408261045f565b60088152672aa9a21021b7b4b760c11b60209091015250604080517f52878b207aaddbfc15ea7bebcda681eb8ccd306e2227b61cef68505c8c056341916101cc908261045f565b600181526020810190601960f91b82525190206040519060208201927f8b73c3c69bb8fe3d512ecc4cf759cc79239f7b179b0ffacaa9a75d522b39400f8452604083015260608201524660808201523060a082015260a0815261023060c08261045f565b519020600555604051610a1c90816104838239f35b634e487b7160e01b600052601160045260246000fd5b63ec442f0560e01b600052600060045260246000fd5b0151905038806100fc565b601f198216926004600052806000209160005b8581106102c8575083600195106102af575b505050811b01600455610112565b015160001960f88460031b161c191690553880806102a1565b9192602060018192868501518155019401920161028f565b60046000527f8a35acfbc15ff81a39ae7d344fd709f28e8600b4aa8c65c6b64bfe7fe36bd19b601f830160051c8101916020841061033b575b601f0160051c01905b81811061032f57506100e2565b60008155600101610322565b9091508190610319565b634e487b7160e01b600052602260045260246000fd5b90607f16906100d0565b634e487b7160e01b600052604160045260246000fd5b015190503880610099565b601f198216936003600052806000209160005b8681106103d357508360019596106103ba575b505050811b016003556100af565b015160001960f88460031b161c191690553880806103ac565b91926020600181928685015181550194019201610399565b60036000527fc2575a0e9e593c00f959f8c92f12db2869c3395a3b0502d05e2516446f71f85b601f830160051c81019160208410610446575b601f0160051c01905b81811061043a575061007e565b6000815560010161042d565b9091508190610424565b90607f169061006c565b600080fd5b601f909101601f19168101906001600160401b038211908210176103655760405256fe608080604052600436101561001357600080fd5b60003560e01c90816306fdde03146107ce57508063095ea7b31461074857806318160ddd1461072a57806323b872dd1461063d57806330adf81f14610602578063313ce567146105e65780633644e515146105c857806340c10f191461051c57806370a08231146104e257806395d89b41146103da578063a9059cbb146103a9578063dd62ed3e14610358578063e3ee160e146100ef5763eda96149146100b957600080fd5b346100ea5760203660031901126100ea576004356000526006602052602060ff604060002054166040519015158152f35b600080fd5b346100ea576101203660031901126100ea576101096108d3565b6101116108e9565b60443590606435926084359360a4359460c43560ff81168091036100ea5782421061031e578142116102ea5786600052600660205260ff604060002054166102b157608060009160209360055490604051868101917f7c7c6cdb67a18743f49ec6fa9b35f50d52ed05cbed4cc592e13b44501c1a2267835260018060a01b038a169889604084015260018060a01b038c1660608401528c8784015260a083015260c08201528b60e082015260e081526101cc610100826108ff565b519020604051908682019261190160f01b845260228301526042820152604281526101f86062826108ff565b519020906040519182528482015260e435604082015261010435606082015282805260015afa156102a5576000516001600160a01b0316908114908161029b575b5015610262576102609360005260066020526040600020600160ff19825416179055610937565b005b60405162461bcd60e51b8152602060048201526011602482015270496e76616c6964207369676e617475726560781b6044820152606490fd5b9050151585610239565b6040513d6000823e3d90fd5b60405162461bcd60e51b8152602060048201526011602482015270105d5d1a08185b1c9958591e481d5cd959607a1b6044820152606490fd5b60405162461bcd60e51b815260206004820152600c60248201526b105d5d1a08195e1c1a5c995960a21b6044820152606490fd5b60405162461bcd60e51b8152602060048201526012602482015271105d5d1a081b9bdd081e595d081d985b1a5960721b6044820152606490fd5b346100ea5760403660031901126100ea576103716108d3565b6103796108e9565b6001600160a01b039182166000908152600160209081526040808320949093168252928352819020549051908152f35b346100ea5760403660031901126100ea576103cf6103c56108d3565b6024359033610937565b602060405160018152f35b346100ea5760003660031901126100ea5760405160006004548060011c906001811680156104d8575b6020831081146104c4578285529081156104a05750600114610440575b61043c83610430818503826108ff565b6040519182918261088a565b0390f35b91905060046000527f8a35acfbc15ff81a39ae7d344fd709f28e8600b4aa8c65c6b64bfe7fe36bd19b916000905b80821061048657509091508101602001610430610420565b91926001816020925483858801015201910190929161046e565b60ff191660208086019190915291151560051b840190910191506104309050610420565b634e487b7160e01b84526022600452602484fd5b91607f1691610403565b346100ea5760203660031901126100ea576001600160a01b036105036108d3565b1660005260006020526020604060002054604051908152f35b346100ea5760403660031901126100ea576105356108d3565b602435906001600160a01b031680156105b2576002549180830180931161059c576020926002557fddf252ad1be2c89b69c2b068fc378daa952ba7f163c4a11628f55a4df523b3ef600093849284845283825260408420818154019055604051908152a380f35b634e487b7160e01b600052601160045260246000fd5b63ec442f0560e01b600052600060045260246000fd5b346100ea5760003660031901126100ea576020600554604051908152f35b346100ea5760003660031901126100ea57602060405160128152f35b346100ea5760003660031901126100ea5760206040517f7c7c6cdb67a18743f49ec6fa9b35f50d52ed05cbed4cc592e13b44501c1a22678152f35b346100ea5760603660031901126100ea576106566108d3565b61065e6108e9565b6001600160a01b038216600081815260016020908152604080832033845290915290205490926044359291600019811061069e575b506103cf9350610937565b83811061070d5784156106f75733156106e1576103cf946000526001602052604060002060018060a01b0333166000526020528360406000209103905584610693565b634a1406b160e11b600052600060045260246000fd5b63e602df0560e01b600052600060045260246000fd5b8390637dc7a0d960e11b6000523360045260245260445260646000fd5b346100ea5760003660031901126100ea576020600254604051908152f35b346100ea5760403660031901126100ea576107616108d3565b6024359033156106f7576001600160a01b03169081156106e157336000526001602052604060002082600052602052806040600020556040519081527f8c5be1e5ebec7d5bd14f71427d1e84f3dd0314c0f7b2291e5b200ac8c7c3b92560203392a3602060405160018152f35b346100ea5760003660031901126100ea5760006003548060011c90600181168015610880575b6020831081146104c4578285529081156104a057506001146108205761043c83610430818503826108ff565b91905060036000527fc2575a0e9e593c00f959f8c92f12db2869c3395a3b0502d05e2516446f71f85b916000905b80821061086657509091508101602001610430610420565b91926001816020925483858801015201910190929161084e565b91607f16916107f4565b91909160208152825180602083015260005b8181106108bd575060409293506000838284010152601f8019910116010190565b806020809287010151604082860101520161089c565b600435906001600160a01b03821682036100ea57565b602435906001600160a01b03821682036100ea57565b90601f8019910116810190811067ffffffffffffffff82111761092157604052565b634e487b7160e01b600052604160045260246000fd5b6001600160a01b03169081156109d0576001600160a01b03169182156105b25760008281528060205260408120548281106109b65791604082827fddf252ad1be2c89b69c2b068fc378daa952ba7f163c4a11628f55a4df523b3ef958760209652828652038282205586815280845220818154019055604051908152a3565b916064928463391434e360e21b8452600452602452604452fd5b634b637e8f60e11b600052600060045260246000fdfea26469706673582212205b3b33250dbad84889261ad2ee68020248db55fd213f4c7850ace53ed79f545e64736f6c634300081c0033",
  "linkReferences": {},
  "deployedLinkReferences": {}
}