{
  "_format": "hh-sol-artifact-1",
  "contractName": "ValidationRegistry",
  "sourceName": "contracts/ValidationRegistry.sol",
  "abi": [
    {
      "inputs": [
        {
          "internalType": "address",
          "name": "_identityRegistry",
          "type": "address"
        }
      ],
      "stateMutability": "nonpayable",
      "type": "constructor"
    },
    {
      "anonymous": false,
      "inputs": [
        {
          "indexed": true,
          "internalType": "address",
          "name": "validatorAddress",
          "type": "address"
        },
        {
          "indexed": true,
          "internalType": "uint256",
          "name": "agentId",
          "type": "uint256"
        },
        {
          "indexed": false,
          "internalType": "string",
          "name": "requestUri",
          "type": "string"
        },
        {
          "indexed": true,
          "internalType": "bytes32",
          "name": "requestHash",
          "type": "bytes32"
        }
      ],
      "name": "ValidationRequest",
      "type": "event"
    },
    {
      "anonymous": false,
      "inputs": [
        {
          "indexed": true,
          "internalType": "address",
          "name": "validatorAddress",
          "type": "address"
        },
        {
          "indexed": true,
          "internalType": "uint256",
          "name": "agentId",
          "type": "uint256"
        },
        {
          "indexed": true,
          "internalType": "bytes32",
          "name": "requestHash",
          "type": "bytes32"
        },
        {
          "indexed": false,
          "internalType": "uint8",
          "name": "response",
          "type": "uint8"
        },
        {
          "indexed": false,
          "internalType": "string",
          "name": "responseUri",
          "type": "string"
        },
        {
          "indexed": false,
          "internalType": "bytes32",
          "name": "responseHash",
          "type": "bytes32"
        },
        {
          "indexed": false,
          "internalType": "bytes32",
          "name": "tag",
          "type": "bytes32"
        }
      ],
      "name": "ValidationResponse",
      "type": "event"
    },
    {
      "inputs": [
        {
          "internalType": "uint256",
          "name": "agentId",
          "type": "uint256"
        }
      ],
      "name": "getAgentValidations",
      "outputs": [
        {
          "internalType": "bytes32[]",
          "name": "",
          "type": "bytes32[]"
        }
      ],
      "stateMutability": "view",
      "type": "function"
    },
    {
      "inputs": [],
      "name": "getIdentityRegistry",
      "outputs": [
        {
          "internalType": "address",
          "name": "",
          "type": "address"
        }
      ],
      "stateMutability": "view",
      "type": "function"
    },
    {
      "inputs": [
        {
          "internalType": "uint256",
          "name": "agentId",
          "type": "uint256"
        },
        {
          "internalType": "address[]",
          "name": "validatorAddresses",
          "type": "address[]"
        },
        {
          "internalType": "bytes32",
          "name": "tag",
          "type": "bytes32"
        }
      ],
      "name": "getSummary",
      "outputs": [
        {
          "internalType": "uint64",
          "name": "count",
          "type": "uint64"
        },
        {
          "internalType": "uint8",
          "name": "avgResponse",
          "type": "uint8"
        }
      ],
      "stateMutability": "view",
      "type": "function"
    },
    {
      "inputs": [
        {
          "internalType": "bytes32",
          "name": "requestHash",
          "type": "bytes32"
        }
      ],
      "name": "getValidationStatus",
      "outputs": [
        {
          "internalType": "address",
          "name": "validatorAddress",
          "type": "address"
        },
        {
          "internalType": "uint256",
          "name": "agentId",
          "type": "uint256"
        },
        {
          "internalType": "uint8",
          "name": "response",
          "type": "uint8"
        },
        {
          "internalType": "bytes32",
          "name": "responseHash",
          "type": "bytes32"
        },
        {
          "internalType": "bytes32",
          "name": "tag",
          "type": "bytes32"
        },
        {
          "internalType": "uint256",
          "name": "lastUpdate",
          "type": "uint256"
        }
      ],
      "stateMutability": "view",
      "type": "function"
    },
    {
      "inputs": [
        {
          "internalType": "address",
          "name": "validatorAddress",
          "type": "address"
        }
      ],
      "name": "getValidatorRequests",
      "outputs": [
        {
          "internalType": "bytes32[]",
          "name": "",
          "type": "bytes32[]"
        }
      ],
      "stateMutability": "view",
      "type": "function"
    },
    {
      "inputs": [
        {
          "internalType": "address",
          "name": "validatorAddress",
          "type": "address"
        },
        {
          "internalType": "uint256",
          "name": "agentId",
          "type": "uint256"
        },
        {
          "internalType": "string",
          "name": "requestUri",
          "type": "string"
        },
        {
          "internalType": "bytes32",
          "name": "requestHash",
          "type": "bytes32"
        }
      ],
      "name": "validationRequest",
      "outputs": [],
      "stateMutability": "nonpayable",
      "type": "function"
    },
    {
      "inputs": [
        {
          "internalType": "bytes32",
          "name": "requestHash",
          "type": "bytes32"
        },
        {
          "internalType": "uint8",
          "name": "response",
          "type": "uint8"
        },
        {
          "internalType": "string",
          "name": "responseUri",
          "type": "string"
        },
        {
          "internalType": "bytes32",
          "name": "responseHash",
          "type": "bytes32"
        },
        {
          "internalType": "bytes32",
          "name": "tag",
          "type": "bytes32"
        }
      ],
      "name": "validationResponse",
      "outputs": [],
      "stateMutability": "nonpayable",
      "type": "function"
    },
    {
      "inputs": [
        {
          "internalType": "bytes32",
          "name": "",
          "type": "bytes32"
        }
      ],
      "name": "validations",
      "outputs": [
        {
          "internalType": "address",
          "name": "validatorAddress",
          "type": "address"
        },
        {
          "internalType": "uint256",
          "name": "agentId",
          "type": "uint256"
        },
        {
          "internalType": "uint8",
          "name": "response",
          "type": "uint8"
        },
        {
          "internalType": "bytes32",
          "name": "responseHash",
          "type": "bytes32"
        },
        {
          "internalType": "bytes32",
          "name": "tag",
          "type": "bytes32"
        },
        {
          "internalType": "uint256",
          "name": "lastUpdate",
          "type": "uint256"
        }
      ],
      "stateMutability": "view",
      "type": "function"
    }
  ],
  "bytecode": "0x60a0346100ab57601f610c4a38819003918201601f19168301916001600160401b038311848410176100b0578084926020946040528339810103126100ab57516001600160a01b0381168082036100ab571561007757608052604051610b8390816100c782396080518181816101ed015261029e0152f35b60405162461bcd60e51b815260206004820152600c60248201526b626164206964656e7469747960a01b6044820152606490fd5b600080fd5b634e487b7160e01b600052604160045260246000fdfe6080604052600436101561001257600080fd5b60003560e01c806330e5993a1461085c5780634bf3158c146107e55780638d5d0c2d14610770578063a0aa15a11461055f578063aaf400c41461021c578063bc4d861b146101d7578063e28c38021461015a5763ff2febfc1461007457600080fd5b3461015557602036600319011261015557600435600052600060205260406000206040516100a181610a91565b61015160018060a01b03835416918281526001840154926020820193845260ff600286015416946040830195865260ff6003820154936060810194855261010160056004850154946080840195865201549460a083019586521515610a3a565b60018060a01b03905116955196511692519051915192604051968796879260ff9060a095929897969360c0860199600180891b031686526020860152166040840152606083015260808201520152565b0390f35b600080fd5b3461015557602036600319011261015557600480356000908152602081815260409182902080546001820154600283015460038401549684015460059094015486516001600160a01b0390941684529483019190915260ff16938101939093526060830193909352608082019290925260a081019190915260c090f35b34610155576000366003190112610155576040517f00000000000000000000000000000000000000000000000000000000000000006001600160a01b03168152602090f35b34610155576080366003190112610155576102356109ea565b60243560443567ffffffffffffffff8111610155576102589036906004016109bc565b606435936001600160a01b031691821561052a576000858152602081905260409020546001600160a01b03166104fc576040516331a9108f60e11b8152600481018590527f00000000000000000000000000000000000000000000000000000000000000006001600160a01b031690602081602481855afa9081156104ae576000916104ba575b5060018060a01b031690813314918215610430575b5050156103fa577f530436c3634a98e1e626b0898be2f1e9980cc1bd2a78c07a0aba52d0a48a50599160405161032981610a91565b8481526005602082018781526040830160008152606084016000815260ff60808601926000845260a08701944286528d600052600060205260406000209760018060a01b039051166bffffffffffffffffffffffff60a01b895416178855516001880155511660ff60028701911660ff19825416179055516003850155516004840155519101558460005260016020526103c7866040600020610b13565b8360005260026020526103de866040600020610b13565b6103f5604051928392602084526020840191610a70565b0390a4005b60405162461bcd60e51b815260206004820152600e60248201526d139bdd08185d5d1a1bdc9a5e995960921b6044820152606490fd5b602091925060446040518094819363e985e9c560e01b835260048301523360248301525afa9081156104ae5760009161046c575b5086806102f4565b6020813d6020116104a6575b8161048560209383610ac3565b810103126104a2575190811515820361049f575086610464565b80fd5b5080fd5b3d9150610478565b6040513d6000823e3d90fd5b6020813d6020116104f4575b816104d360209383610ac3565b810103126104a25751906001600160a01b038216820361049f5750876102df565b3d91506104c6565b60405162461bcd60e51b815260206004820152600660248201526565786973747360d01b6044820152606490fd5b60405162461bcd60e51b815260206004820152600d60248201526c3130b2103b30b634b230ba37b960991b6044820152606490fd5b346101555760603660031901126101555760243567ffffffffffffffff811161015557366023820112156101555780600401359067ffffffffffffffff8211610155573660248360051b830101116101555760443591600091829160043560005260016020526040600020946000908654968315948515948315928315955b8b8110610637578a67ffffffffffffffff8b16801580610629576106135760ff808260409404165b8351928352166020820152f35b634e487b7160e01b600052601260045260246000fd5b506040915060ff6000610606565b6106418183610ae5565b90549060031b1c60005260006020526040600020888a906106ee575b86896106e1575b816106d9575b50806106d1575b61067f575b506001016105de565b600260ff919c929b9c01541681018091116106bb5767ffffffffffffffff909a1667ffffffffffffffff81146106bb5760018091019990610676565b634e487b7160e01b600052601160045260246000fd5b506001610671565b90508e61066a565b5087600483015414610664565b9298849c9b9a919960009e939e9998979960018060a01b038c5416965b81101561075a576024600582901b890101356001600160a01b0381169060009082900361049f57508714610742576001018e61070b565b5093509890999a9b935060019c919c9795969761065d565b50939099919a9b9c94509c919c9795969761065d565b34610155576020366003190112610155576004356000526001602052604060002060405190816020825491828152019160005260206000209060005b8181106107cf57610151856107c381870382610ac3565b60405191829182610a00565b82548452602090930192600192830192016107ac565b34610155576020366003190112610155576001600160a01b036108066109ea565b166000526002602052604060002060405190816020825491828152019160005260206000209060005b81811061084657610151856107c381870382610ac3565b825484526020909301926001928301920161082f565b346101555760a03660031901126101555760043560243560ff81168091036101555760443567ffffffffffffffff81116101555761089e9036906004016109bc565b9091606435916084359185600052600060205260406000209360018060a01b038554166108cc811515610a3a565b33036109875760648211610957577ff224d3d5ad74301be48e4d51ca5f1b24c7946875887327585becc59165297dcf93600286018360ff198254161790558160038701558060048701554260058701556109476001808060a01b03885416970154976040519586958652608060208701526080860191610a70565b91604084015260608301520390a4005b60405162461bcd60e51b81526020600482015260086024820152670726573703e3130360c41b6044820152606490fd5b60405162461bcd60e51b815260206004820152600d60248201526c3737ba103b30b634b230ba37b960991b6044820152606490fd5b9181601f840112156101555782359167ffffffffffffffff8311610155576020838186019501011161015557565b600435906001600160a01b038216820361015557565b602060408183019282815284518094520192019060005b818110610a245750505090565b8251845260209384019390920191600101610a17565b15610a4157565b60405162461bcd60e51b81526020600482015260076024820152663ab735b737bbb760c91b6044820152606490fd5b908060209392818452848401376000828201840152601f01601f1916010190565b60c0810190811067ffffffffffffffff821117610aad57604052565b634e487b7160e01b600052604160045260246000fd5b90601f8019910116810190811067ffffffffffffffff821117610aad57604052565b8054821015610afd5760005260206000200190600090565b634e487b7160e01b600052603260045260246000fd5b805468010000000000000000811015610aad57610b3591600182018155610ae5565b819291549060031b91821b91600019901b191617905556fea26469706673582212207947425ccc6e87ad7e2e174c5c67f36856dedfbd8b9a68e73de5ccebdcbcd29f64736f6c634300081c0033",
  "linkReferences": {},
  "deployedLinkReferences": {}
}