{
  "_format": "hh-sol-artifact-1",
  "contractName": "ValidationRegistryUpgradeable",
  "sourceName": "contracts/ValidationRegistryUpgradeable.sol",
  "abi": [
    {
      "inputs": [],
      "stateMutability": "nonpayable",
      "type": "constructor"
    },
    {
      "inputs": [
        {
          "internalType": "address",
          "name": "target",
          "type": "address"
        }
      ],
      "name": "AddressEmptyCode",
      "type": "error"
    },
    {
      "inputs": [
        {
          "internalType": "address",
          "name": "implementation",
          "type": "address"
        }
      ],
      "name": "ERC1967InvalidImplementation",
      "type": "error"
    },
    {
      "inputs": [],
      "name": "ERC1967NonPayable",
      "type": "error"
    },
    {
      "inputs": [],
      "name": "FailedCall",
      "type": "error"
    },
    {
      "inputs": [],
      "name": "InvalidInitialization",
      "type": "error"
    },
    {
      "inputs": [],
      "name": "NotInitializing",
      "type": "error"
    },
    {
      "inputs": [
        {
          "internalType": "address",
          "name": "owner",
          "type": "address"
        }
      ],
      "name": "OwnableInvalidOwner",
      "type": "error"
    },
    {
      "inputs": [
        {
          "internalType": "address",
          "name": "account",
          "type": "address"
        }
      ],
      "name": "OwnableUnauthorizedAccount",
      "type": "error"
    },
    {
      "inputs": [],
      "name": "UUPSUnauthorizedCallContext",
      "type": "error"
    },
    {
      "inputs": [
        {
          "internalType": "bytes32",
          "name": "slot",
          "type": "bytes32"
        }
      ],
      "name": "UUPSUnsupportedProxiableUUID",
      "type": "error"
    },
    {
      "anonymous": false,
      "inputs": [
        {
          "indexed": false,
          "internalType": "uint64",
          "name": "version",
          "type": "uint64"
        }
      ],
      "name": "Initialized",
      "type": "event"
    },
    {
      "anonymous": false,
      "inputs": [
        {
          "indexed": true,
          "internalType": "address",
          "name": "previousOwner",
          "type": "address"
        },
        {
          "indexed": true,
          "internalType": "address",
          "name": "newOwner",
          "type": "address"
        }
      ],
      "name": "OwnershipTransferred",
      "type": "event"
    },
    {
      "anonymous": false,
      "inputs": [
        {
          "indexed": true,
          "internalType": "address",
          "name": "implementation",
          "type": "address"
        }
      ],
      "name": "Upgraded",
      "type": "event"
    },
    {
      "anonymous": false,
      "inputs": [
        {
          "indexed": true,
          "internalType": "address",
          "name": "validatorAddress",
          "type": "address"
        },
        {
          "indexed": true,
          "internalType": "uint256",
          "name": "agentId",
          "type": "uint256"
        },
        {
          "indexed": false,
          "internalType": "string",
          "name": "requestUri",
          "type": "string"
        },
        {
          "indexed": true,
          "internalType": "bytes32",
          "name": "requestHash",
          "type": "bytes32"
        }
      ],
      "name": "ValidationRequest",
      "type": "event"
    },
    {
      "anonymous": false,
      "inputs": [
        {
          "indexed": true,
          "internalType": "address",
          "name": "validatorAddress",
          "type": "address"
        },
        {
          "indexed": true,
          "internalType": "uint256",
          "name": "agentId",
          "type": "uint256"
        },
        {
          "indexed": true,
          "internalType": "bytes32",
          "name": "requestHash",
          "type": "bytes32"
        },
        {
          "indexed": false,
          "internalType": "uint8",
          "name": "response",
          "type": "uint8"
        },
        {
          "indexed": false,
          "internalType": "string",
          "name": "responseUri",
          "type": "string"
        },
        {
          "indexed": false,
          "internalType": "bytes32",
          "name": "responseHash",
          "type": "bytes32"
        },
        {
          "indexed": false,
          "internalType": "bytes32",
          "name": "tag",
          "type": "bytes32"
        }
      ],
      "name": "ValidationResponse",
      "type": "event"
    },
    {
      "inputs": [],
      "name": "UPGRADE_INTERFACE_VERSION",
      "outputs": [
        {
          "internalType": "string",
          "name": "",
          "type": "string"
        }
      ],
      "stateMutability": "view",
      "type": "function"
    },
    {
      "inputs": [
        {
          "internalType": "uint256",
          "name": "agentId",
          "type": "uint256"
        }
      ],
      "name": "getAgentValidations",
      "outputs": [
        {
          "internalType": "bytes32[]",
          "name": "",
          "type": "bytes32[]"
        }
      ],
      "stateMutability": "view",
      "type": "function"
    },
    {
      "inputs": [],
      "name": "getIdentityRegistry",
      "outputs": [
        {
          "internalType": "address",
          "name": "",
          "type": "address"
        }
      ],
      "stateMutability": "view",
      "type": "function"
    },
    {
      "inputs": [
        {
          "internalType": "uint256",
          "name": "agentId",
          "type": "uint256"
        },
        {
          "internalType": "address[]",
          "name": "validatorAddresses",
          "type": "address[]"
        },
        {
          "internalType": "bytes32",
          "name": "tag",
          "type": "bytes32"
        }
      ],
      "name": "getSummary",
      "outputs": [
        {
          "internalType": "uint64",
          "name": "count",
          "type": "uint64"
        },
        {
          "internalType": "uint8",
          "name": "avgResponse",
          "type": "uint8"
        }
      ],
      "stateMutability": "view",
      "type": "function"
    },
    {
      "inputs": [
        {
          "internalType": "bytes32",
          "name": "requestHash",
          "type": "bytes32"
        }
      ],
      "name": "getValidationStatus",
      "outputs": [
        {
          "internalType": "address",
          "name": "validatorAddress",
          "type": "address"
        },
        {
          "internalType": "uint256",
          "name": "agentId",
          "type": "uint256"
        },
        {
          "internalType": "uint8",
          "name": "response",
          "type": "uint8"
        },
        {
          "internalType": "bytes32",
          "name": "responseHash",
          "type": "bytes32"
        },
        {
          "internalType": "bytes32",
          "name": "tag",
          "type": "bytes32"
        },
        {
          "internalType": "uint256",
          "name": "lastUpdate",
          "type": "uint256"
        }
      ],
      "stateMutability": "view",
      "type": "function"
    },
    {
      "inputs": [
        {
          "internalType": "address",
          "name": "validatorAddress",
          "type": "address"
        }
      ],
      "name": "getValidatorRequests",
      "outputs": [
        {
          "internalType": "bytes32[]",
          "name": "",
          "type": "bytes32[]"
        }
      ],
      "stateMutability": "view",
      "type": "function"
    },
    {
      "inputs": [],
      "name": "getVersion",
      "outputs": [
        {
          "internalType": "string",
          "name": "",
          "type": "string"
        }
      ],
      "stateMutability": "pure",
      "type": "function"
    },
    {
      "inputs": [
        {
          "internalType": "address",
          "name": "_identityRegistry",
          "type": "address"
        }
      ],
      "name": "initialize",
      "outputs": [],
      "stateMutability": "nonpayable",
      "type": "function"
    },
    {
      "inputs": [],
      "name": "owner",
      "outputs": [
        {
          "internalType": "address",
          "name": "",
          "type": "address"
        }
      ],
      "stateMutability": "view",
      "type": "function"
    },
    {
      "inputs": [],
      "name": "proxiableUUID",
      "outputs": [
        {
          "internalType": "bytes32",
          "name": "",
          "type": "bytes32"
        }
      ],
      "stateMutability": "view",
      "type": "function"
    },
    {
      "inputs": [],
      "name": "renounceOwnership",
      "outputs": [],
      "stateMutability": "nonpayable",
      "type": "function"
    },
    {
      "inputs": [
        {
          "internalType": "address",
          "name": "newOwner",
          "type": "address"
        }
      ],
      "name": "transferOwnership",
      "outputs": [],
      "stateMutability": "nonpayable",
      "type": "function"
    },
    {
      "inputs": [
        {
          "internalType": "address",
          "name": "newImplementation",
          "type": "address"
        },
        {
          "internalType": "bytes",
          "name": "data",
          "type": "bytes"
        }
      ],
      "name": "upgradeToAndCall",
      "outputs": [],
      "stateMutability": "payable",
      "type": "function"
    },
    {
      "inputs": [
        {
          "internalType": "address",
          "name": "validatorAddress",
          "type": "address"
        },
        {
          "internalType": "uint256",
          "name": "agentId",
          "type": "uint256"
        },
        {
          "internalType": "string",
          "name": "requestUri",
          "type": "string"
        },
        {
          "internalType": "bytes32",
          "name": "requestHash",
          "type": "bytes32"
        }
      ],
      "name": "validationRequest",
      "outputs": [],
      "stateMutability": "nonpayable",
      "type": "function"
    },
    {
      "inputs": [
        {
          "internalType": "bytes32",
          "name": "requestHash",
          "type": "bytes32"
        },
        {
          "internalType": "uint8",
          "name": "response",
          "type": "uint8"
        },
        {
          "internalType": "string",
          "name": "responseUri",
          "type": "string"
        },
        {
          "internalType": "bytes32",
          "name": "responseHash",
          "type": "bytes32"
        },
        {
          "internalType": "bytes32",
          "name": "tag",
          "type": "bytes32"
        }
      ],
      "name": "validationResponse",
      "outputs": [],
      "stateMutability": "nonpayable",
      "type": "function"
    },
    {
      "inputs": [
        {
          "internalType": "bytes32",
          "name": "",
          "type": "bytes32"
        }
      ],
      "name": "validations",
      "outputs": [
        {
          "internalType": "address",
          "name": "validatorAddress",
          "type": "address"
        },
        {
          "internalType": "uint256",
          "name": "agentId",
          "type": "uint256"
        },
        {
          "internalType": "uint8",
          "name": "response",
          "type": "uint8"
        },
        {
          "internalType": "bytes32",
          "name": "responseHash",
          "type": "bytes32"
        },
        {
          "internalType": "bytes32",
          "name": "tag",
          "type": "bytes32"
        },
        {
          "internalType": "uint256",
          "name": "lastUpdate",
          "type": "uint256"
        }
      ],
      "stateMutability": "view",
      "type": "function"
    }
  ],
  "bytecode": "0x60a080604052346100ea57306080527ff0c57e16840df040f15088dc2f81fe391c3923bec73e23a9662efc9c229c6a005460ff8160401c166100d9576002600160401b03196001600160401b03821601610073575b60405161134890816100f08239608051818181610add0152610bb00152f35b6001600160401b0319166001600160401b039081177ff0c57e16840df040f15088dc2f81fe391c3923bec73e23a9662efc9c229c6a005581527fc7f505b2f371ae2175ee4913f4499e1f2633a7b5936321eed1cdaeb6115181d290602090a13880610054565b63f92ee8a960e01b60005260046000fd5b600080fdfe6080604052600436101561001257600080fd5b60003560e01c80630d8e6e2c14610f4a57806330e5993a14610deb5780634bf3158c14610d745780634f1ef28614610b3457806352d1902d14610aca578063715018a614610a605780638d5d0c2d146109eb5780638da5cb5b146109b5578063a0aa15a1146107a9578063aaf400c414610483578063ad3cb1cc14610444578063bc4d861b1461041b578063c4d66de814610264578063e28c3802146101dd578063f2fde38b146101b25763ff2febfc146100cc57600080fd5b346101ad5760203660031901126101ad57600435600052600160205260406000206040516100f98161104b565b6101a960018060a01b03835416918281526001840154926020820193845260ff600286015416946040830195865260ff6003820154936060810194855261015960056004850154946080840195865201549460a0830195865215156110b8565b60018060a01b03905116955196511692519051915192604051968796879260ff9060a095929897969360c0860199600180891b031686526020860152166040840152606083015260808201520152565b0390f35b600080fd5b346101ad5760203660031901126101ad576101db6101ce610ffb565b6101d66111ed565b611177565b005b346101ad5760203660031901126101ad576004356000526001602052604060002060018060a01b038154166101a960018301549260ff6002820154169060038101546005600483015492015492604051968796879260ff9060a095929897969360c0860199600180891b031686526020860152166040840152606083015260808201520152565b346101ad5760203660031901126101ad5761027d610ffb565b6000805160206112f3833981519152549060ff8260401c1615916001600160401b03811680159081610413575b6001149081610409575b159081610400575b506103ef5767ffffffffffffffff1981166001176000805160206112f383398151915255826103c2575b506001600160a01b0316801561038e576102fe611223565b610306611223565b61030f33611177565b610317611223565b6bffffffffffffffffffffffff60a01b600054161760005561033557005b68ff0000000000000000196000805160206112f383398151915254166000805160206112f3833981519152557fc7f505b2f371ae2175ee4913f4499e1f2633a7b5936321eed1cdaeb6115181d2602060405160018152a1005b60405162461bcd60e51b815260206004820152600c60248201526b626164206964656e7469747960a01b6044820152606490fd5b68ffffffffffffffffff191668010000000000000001176000805160206112f383398151915255826102e6565b63f92ee8a960e01b60005260046000fd5b905015846102bc565b303b1591506102b4565b8491506102aa565b346101ad5760003660031901126101ad576000546040516001600160a01b039091168152602090f35b346101ad5760003660031901126101ad576101a96040805190610467818361107c565b60058252640352e302e360dc1b60208301525191829182610f85565b346101ad5760803660031901126101ad5761049c610ffb565b6024356044356001600160401b0381116101ad576104be903690600401610fce565b606435936001600160a01b0316918215610774576000858152600160205260409020546001600160a01b0316610746576000546040516331a9108f60e11b8152600481018690526001600160a01b0390911690602081602481855afa9081156106f857600091610704575b5060018060a01b03169081331491821561067a575b505015610644577f530436c3634a98e1e626b0898be2f1e9980cc1bd2a78c07a0aba52d0a48a5059916040516105738161104b565b8481526005602082018781526040830160008152606084016000815260ff60808601926000845260a08701944286528d600052600160205260406000209760018060a01b039051166bffffffffffffffffffffffff60a01b895416178855516001880155511660ff60028701911660ff198254161790555160038501555160048401555191015584600052600260205261061186604060002061113d565b83600052600360205261062886604060002061113d565b61063f6040519283926020845260208401916110ee565b0390a4005b60405162461bcd60e51b815260206004820152600e60248201526d139bdd08185d5d1a1bdc9a5e995960921b6044820152606490fd5b602091925060446040518094819363e985e9c560e01b835260048301523360248301525afa9081156106f8576000916106b6575b50868061053e565b6020813d6020116106f0575b816106cf6020938361107c565b810103126106ec57519081151582036106e95750866106ae565b80fd5b5080fd5b3d91506106c2565b6040513d6000823e3d90fd5b6020813d60201161073e575b8161071d6020938361107c565b810103126106ec5751906001600160a01b03821682036106e9575087610529565b3d9150610710565b60405162461bcd60e51b815260206004820152600660248201526565786973747360d01b6044820152606490fd5b60405162461bcd60e51b815260206004820152600d60248201526c3130b2103b30b634b230ba37b960991b6044820152606490fd5b346101ad5760603660031901126101ad576024356001600160401b0381116101ad57366023820112156101ad578060040135906001600160401b0382116101ad573660248360051b830101116101ad5760443591600091829160043560005260026020526040600020946000908654968315948515948315928315955b8b811061087e578a6001600160401b038b168015806108705761085a5760ff808260409404165b8351928352166020820152f35b634e487b7160e01b600052601260045260246000fd5b506040915060ff600061084d565b610888818361110f565b90549060031b1c60005260016020526040600020888a90610933575b8689610926575b8161091e575b5080610916575b6108c6575b50600101610826565b600260ff919c929b9c0154168101809111610900576001600160401b03909a166001600160401b03811461090057600180910199906108bd565b634e487b7160e01b600052601160045260246000fd5b5060016108b8565b90508e6108b1565b50876004830154146108ab565b9298849c9b9a919960009e939e9998979960018060a01b038c5416965b81101561099f576024600582901b890101356001600160a01b038116906000908290036106e957508714610987576001018e610950565b5093509890999a9b935060019c919c979596976108a4565b50939099919a9b9c94509c919c979596976108a4565b346101ad5760003660031901126101ad576000805160206112b3833981519152546040516001600160a01b039091168152602090f35b346101ad5760203660031901126101ad576004356000526002602052604060002060405190816020825491828152019160005260206000209060005b818110610a4a576101a985610a3e8187038261107c565b60405191829182611011565b8254845260209093019260019283019201610a27565b346101ad5760003660031901126101ad57610a796111ed565b6000805160206112b383398151915280546001600160a01b031981169091556000906001600160a01b03167f8be0079c531659141344cd1fd0a4f28419497f9722a3daafe3b4186f6b6457e08280a3005b346101ad5760003660031901126101ad577f00000000000000000000000000000000000000000000000000000000000000006001600160a01b03163003610b235760206040516000805160206112d38339815191528152f35b63703e46dd60e11b60005260046000fd5b60403660031901126101ad57610b48610ffb565b602435906001600160401b0382116101ad57366023830112156101ad57816004013590610b748261109d565b91610b82604051938461107c565b808352602083019336602483830101116101ad57816000926024602093018737840101526001600160a01b037f000000000000000000000000000000000000000000000000000000000000000016308114908115610d51575b50610b2357610be86111ed565b6040516352d1902d60e01b81526001600160a01b0382169390602081600481885afa60009181610d1d575b50610c2d5784634c9c8ce360e01b60005260045260246000fd5b806000805160206112d3833981519152869203610d095750823b15610cf5576000805160206112d383398151915280546001600160a01b031916821790557fbc7cd75a20ee27fd9adebab32041f755214dbc6bffa90cc0225b39da2e5c2d3b600080a2825115610cda57600080916101db945190845af43d15610cd2573d91610cb58361109d565b92610cc3604051948561107c565b83523d6000602085013e611251565b606091611251565b50505034610ce457005b63b398979f60e01b60005260046000fd5b634c9c8ce360e01b60005260045260246000fd5b632a87526960e21b60005260045260246000fd5b9091506020813d602011610d49575b81610d396020938361107c565b810103126101ad57519086610c13565b3d9150610d2c565b6000805160206112d3833981519152546001600160a01b03161415905084610bdb565b346101ad5760203660031901126101ad576001600160a01b03610d95610ffb565b166000526003602052604060002060405190816020825491828152019160005260206000209060005b818110610dd5576101a985610a3e8187038261107c565b8254845260209093019260019283019201610dbe565b346101ad5760a03660031901126101ad5760043560243560ff81168091036101ad576044356001600160401b0381116101ad57610e2c903690600401610fce565b9091606435916084359185600052600160205260406000209360018060a01b03855416610e5a8115156110b8565b3303610f155760648211610ee5577ff224d3d5ad74301be48e4d51ca5f1b24c7946875887327585becc59165297dcf93600286018360ff19825416179055816003870155806004870155426005870155610ed56001808060a01b038854169701549760405195869586526080602087015260808601916110ee565b91604084015260608301520390a4005b60405162461bcd60e51b81526020600482015260086024820152670726573703e3130360c41b6044820152606490fd5b60405162461bcd60e51b815260206004820152600d60248201526c3737ba103b30b634b230ba37b960991b6044820152606490fd5b346101ad5760003660031901126101ad576101a96040805190610f6d818361107c565b60058252640312e302e360dc1b602083015251918291825b91909160208152825180602083015260005b818110610fb8575060409293506000838284010152601f8019910116010190565b8060208092870101516040828601015201610f97565b9181601f840112156101ad578235916001600160401b0383116101ad57602083818601950101116101ad57565b600435906001600160a01b03821682036101ad57565b602060408183019282815284518094520192019060005b8181106110355750505090565b8251845260209384019390920191600101611028565b60c081019081106001600160401b0382111761106657604052565b634e487b7160e01b600052604160045260246000fd5b90601f801991011681019081106001600160401b0382111761106657604052565b6001600160401b03811161106657601f01601f191660200190565b156110bf57565b60405162461bcd60e51b81526020600482015260076024820152663ab735b737bbb760c91b6044820152606490fd5b908060209392818452848401376000828201840152601f01601f1916010190565b80548210156111275760005260206000200190600090565b634e487b7160e01b600052603260045260246000fd5b8054680100000000000000008110156110665761115f9160018201815561110f565b819291549060031b91821b91600019901b1916179055565b6001600160a01b031680156111d7576000805160206112b383398151915280546001600160a01b0319811683179091556001600160a01b03167f8be0079c531659141344cd1fd0a4f28419497f9722a3daafe3b4186f6b6457e0600080a3565b631e4fbdf760e01b600052600060045260246000fd5b6000805160206112b3833981519152546001600160a01b0316330361120e57565b63118cdaa760e01b6000523360045260246000fd5b60ff6000805160206112f38339815191525460401c161561124057565b631afcd79f60e31b60005260046000fd5b90611277575080511561126657602081519101fd5b63d6bda27560e01b60005260046000fd5b815115806112a9575b611288575090565b639996b31560e01b60009081526001600160a01b0391909116600452602490fd5b50803b1561128056fe9016d09d72d40fdae2fd8ceac6b6234c7706214fd39c1cd1e609a0528c199300360894a13ba1a3210667c828492db98dca3e2076cc3735a920a3ca505d382bbcf0c57e16840df040f15088dc2f81fe391c3923bec73e23a9662efc9c229c6a00a264697066735822122012583bc0f4e21ea53079684aa1ca3e1ab64c51c5d6eb85bdaca9d9e3f9866a7264736f6c634300081c0033",
  "linkReferences": {},
  "deployedLinkReferences": {}
}